{
  "contractName": "DigiArtPlat",
  "abi": [
    {
      "constant": true,
      "inputs": [
        {
          "name": "",
          "type": "uint256"
        }
      ],
      "name": "userDat",
      "outputs": [
        {
          "name": "",
          "type": "address"
        }
      ],
      "payable": false,
      "stateMutability": "view",
      "type": "function"
    },
    {
      "constant": true,
      "inputs": [
        {
          "name": "",
          "type": "uint256"
        }
      ],
      "name": "prices",
      "outputs": [
        {
          "name": "",
          "type": "uint256"
        }
      ],
      "payable": false,
      "stateMutability": "view",
      "type": "function"
    },
    {
      "constant": true,
      "inputs": [
        {
          "name": "",
          "type": "uint256"
        }
      ],
      "name": "buyerDat",
      "outputs": [
        {
          "name": "",
          "type": "address"
        }
      ],
      "payable": false,
      "stateMutability": "view",
      "type": "function"
    },
    {
      "anonymous": false,
      "inputs": [
        {
          "indexed": false,
          "name": "txType",
          "type": "string"
        },
        {
          "indexed": false,
          "name": "time",
          "type": "uint256"
        },
        {
          "indexed": false,
          "name": "from",
          "type": "address"
        },
        {
          "indexed": false,
          "name": "to",
          "type": "address"
        },
        {
          "indexed": false,
          "name": "price",
          "type": "uint256"
        }
      ],
      "name": "Transfer",
      "type": "event"
    },
    {
      "anonymous": false,
      "inputs": [
        {
          "indexed": false,
          "name": "time",
          "type": "uint256"
        },
        {
          "indexed": false,
          "name": "artist",
          "type": "address"
        }
      ],
      "name": "Creation",
      "type": "event"
    },
    {
      "constant": false,
      "inputs": [
        {
          "name": "Id",
          "type": "uint256"
        }
      ],
      "name": "createArt",
      "outputs": [
        {
          "name": "",
          "type": "uint256"
        }
      ],
      "payable": false,
      "stateMutability": "nonpayable",
      "type": "function"
    },
    {
      "constant": false,
      "inputs": [
        {
          "name": "ID",
          "type": "uint256"
        },
        {
          "name": "_price",
          "type": "uint256"
        }
      ],
      "name": "initiateSale",
      "outputs": [],
      "payable": false,
      "stateMutability": "nonpayable",
      "type": "function"
    },
    {
      "constant": false,
      "inputs": [
        {
          "name": "ID",
          "type": "uint256"
        },
        {
          "name": "_rent",
          "type": "uint256"
        },
        {
          "name": "_to",
          "type": "address"
        }
      ],
      "name": "initialRent",
      "outputs": [],
      "payable": false,
      "stateMutability": "nonpayable",
      "type": "function"
    },
    {
      "constant": false,
      "inputs": [
        {
          "name": "ID",
          "type": "uint256"
        },
        {
          "name": "_price",
          "type": "uint256"
        },
        {
          "name": "duration",
          "type": "uint256"
        }
      ],
      "name": "initiateAuction",
      "outputs": [],
      "payable": false,
      "stateMutability": "nonpayable",
      "type": "function"
    },
    {
      "constant": false,
      "inputs": [
        {
          "name": "ID",
          "type": "uint256"
        }
      ],
      "name": "buy",
      "outputs": [],
      "payable": true,
      "stateMutability": "payable",
      "type": "function"
    },
    {
      "constant": false,
      "inputs": [
        {
          "name": "ID",
          "type": "uint256"
        },
        {
          "name": "start",
          "type": "uint256"
        },
        {
          "name": "duration",
          "type": "uint256"
        },
        {
          "name": "destination",
          "type": "string"
        }
      ],
      "name": "rent",
      "outputs": [
        {
          "name": "",
          "type": "uint256"
        }
      ],
      "payable": true,
      "stateMutability": "payable",
      "type": "function"
    },
    {
      "constant": false,
      "inputs": [
        {
          "name": "ID",
          "type": "uint256"
        },
        {
          "name": "_renter",
          "type": "address"
        },
        {
          "name": "rate",
          "type": "uint256"
        }
      ],
      "name": "endRent",
      "outputs": [],
      "payable": false,
      "stateMutability": "nonpayable",
      "type": "function"
    },
    {
      "constant": false,
      "inputs": [
        {
          "name": "ID",
          "type": "uint256"
        }
      ],
      "name": "bid",
      "outputs": [],
      "payable": true,
      "stateMutability": "payable",
      "type": "function"
    },
    {
      "constant": false,
      "inputs": [
        {
          "name": "ID",
          "type": "uint256"
        },
        {
          "name": "rate",
          "type": "uint256"
        }
      ],
      "name": "closeAuction",
      "outputs": [],
      "payable": false,
      "stateMutability": "nonpayable",
      "type": "function"
    },
    {
      "constant": false,
      "inputs": [
        {
          "name": "user",
          "type": "address"
        }
      ],
      "name": "checkRating",
      "outputs": [
        {
          "name": "",
          "type": "uint256"
        }
      ],
      "payable": false,
      "stateMutability": "nonpayable",
      "type": "function"
    },
    {
      "constant": true,
      "inputs": [],
      "name": "getUser",
      "outputs": [
        {
          "name": "",
          "type": "address[9]"
        }
      ],
      "payable": false,
      "stateMutability": "view",
      "type": "function"
    },
    {
      "constant": true,
      "inputs": [],
      "name": "getBuyer",
      "outputs": [
        {
          "name": "",
          "type": "address[9]"
        }
      ],
      "payable": false,
      "stateMutability": "view",
      "type": "function"
    }
  ],
  "bytecode": "0x60806040526000601b5534801561001557600080fd5b50613752806100256000396000f3006080604052600436106100db576000357c0100000000000000000000000000000000000000000000000000000000900463ffffffff16806307225006146100e0578063274b13c4146101215780633983a2601461018e578063454a2ab3146101c5578063603daf9a146101e557806367890a7f14610238578063832880e71461027957806388d56b29146102cc5780638c123f4414610323578063b27e65581461037a578063bc31c1c114610408578063c42f0a8814610449578063cada6c3114610480578063d96a094a146104ed578063f7943eca1461050d575b600080fd5b3480156100ec57600080fd5b5061011f600480360381019080803590602001909291908035906020019092919080359060200190929190505050610564565b005b34801561012d57600080fd5b5061014c60048036038101908080359060200190929190505050610969565b604051808273ffffffffffffffffffffffffffffffffffffffff1673ffffffffffffffffffffffffffffffffffffffff16815260200191505060405180910390f35b34801561019a57600080fd5b506101c3600480360381019080803590602001909291908035906020019092919050505061099e565b005b6101e36004803603810190808035906020019092919050505061123f565b005b3480156101f157600080fd5b506101fa611727565b6040518082600960200280838360005b8381101561022557808201518184015260208101905061020a565b5050505090500191505060405180910390f35b34801561024457600080fd5b50610263600480360381019080803590602001909291905050506117a7565b6040518082815260200191505060405180910390f35b34801561028557600080fd5b5061028e611b19565b6040518082600960200280838360005b838110156102b957808201518184015260208101905061029e565b5050505090500191505060405180910390f35b3480156102d857600080fd5b506103216004803603810190808035906020019092919080359060200190929190803573ffffffffffffffffffffffffffffffffffffffff169060200190929190505050611b9a565b005b34801561032f57600080fd5b5061037860048036038101908080359060200190929190803573ffffffffffffffffffffffffffffffffffffffff16906020019092919080359060200190929190505050611e43565b005b6103f2600480360381019080803590602001909291908035906020019092919080359060200190929190803590602001908201803590602001908080601f01602080910402602001604051908101604052809392919081815260200183838082843782019150505050505091929192905050506123cf565b6040518082815260200191505060405180910390f35b34801561041457600080fd5b5061043360048036038101908080359060200190929190505050612bb1565b6040518082815260200191505060405180910390f35b34801561045557600080fd5b5061047e6004803603810190808035906020019092919080359060200190929190505050612bcb565b005b34801561048c57600080fd5b506104ab60048036038101908080359060200190929190505050612c01565b604051808273ffffffffffffffffffffffffffffffffffffffff1673ffffffffffffffffffffffffffffffffffffffff16815260200191505060405180910390f35b61050b60048036038101908080359060200190929190505050612c36565b005b34801561051957600080fd5b5061054e600480360381019080803573ffffffffffffffffffffffffffffffffffffffff1690602001909291905050506134b6565b6040518082815260200191505060405180910390f35b601c600084815260200190815260200160002061016060405190810160405290816000820160009054906101000a900473ffffffffffffffffffffffffffffffffffffffff1673ffffffffffffffffffffffffffffffffffffffff1673ffffffffffffffffffffffffffffffffffffffff1681526020016001820180548060200260200160405190810160405280929190818152602001828054801561065f57602002820191906000526020600020905b8160009054906101000a900473ffffffffffffffffffffffffffffffffffffffff1673ffffffffffffffffffffffffffffffffffffffff1681526020019060010190808311610615575b505050505081526020016002820160009054906101000a900473ffffffffffffffffffffffffffffffffffffffff1673ffffffffffffffffffffffffffffffffffffffff1673ffffffffffffffffffffffffffffffffffffffff1681526020016003820160009054906101000a900473ffffffffffffffffffffffffffffffffffffffff1673ffffffffffffffffffffffffffffffffffffffff1673ffffffffffffffffffffffffffffffffffffffff1681526020016004820154815260200160058201548152602001600682015481526020016007820160009054906101000a900473ffffffffffffffffffffffffffffffffffffffff1673ffffffffffffffffffffffffffffffffffffffff1673ffffffffffffffffffffffffffffffffffffffff1681526020016008820154815260200160098201548152602001600e820160009054906101000a900460ff1660038111156107ba57fe5b60038111156107c557fe5b81525050806000015173ffffffffffffffffffffffffffffffffffffffff163373ffffffffffffffffffffffffffffffffffffffff1614151561080757600080fd5b6000600381111561081457fe5b601c6000868152602001908152602001600020600e0160009054906101000a900460ff16600381111561084357fe5b14151561084f57600080fd5b6002601c6000868152602001908152602001600020600e0160006101000a81548160ff0219169083600381111561088257fe5b021790555082601c600086815260200190815260200160002060060181905550601c600085815260200190815260200160002060000160009054906101000a900473ffffffffffffffffffffffffffffffffffffffff16601c600086815260200190815260200160002060070160006101000a81548173ffffffffffffffffffffffffffffffffffffffff021916908373ffffffffffffffffffffffffffffffffffffffff16021790555042601c60008681526020019081526020016000206008018190555081601c60008681526020019081526020016000206009018190555050505050565b60008160098110151561097857fe5b016000915054906101000a900473ffffffffffffffffffffffffffffffffffffffff1681565b6000806000601c600086815260200190815260200160002061016060405190810160405290816000820160009054906101000a900473ffffffffffffffffffffffffffffffffffffffff1673ffffffffffffffffffffffffffffffffffffffff1673ffffffffffffffffffffffffffffffffffffffff16815260200160018201805480602002602001604051908101604052809291908181526020018280548015610a9e57602002820191906000526020600020905b8160009054906101000a900473ffffffffffffffffffffffffffffffffffffffff1673ffffffffffffffffffffffffffffffffffffffff1681526020019060010190808311610a54575b505050505081526020016002820160009054906101000a900473ffffffffffffffffffffffffffffffffffffffff1673ffffffffffffffffffffffffffffffffffffffff1673ffffffffffffffffffffffffffffffffffffffff1681526020016003820160009054906101000a900473ffffffffffffffffffffffffffffffffffffffff1673ffffffffffffffffffffffffffffffffffffffff1673ffffffffffffffffffffffffffffffffffffffff1681526020016004820154815260200160058201548152602001600682015481526020016007820160009054906101000a900473ffffffffffffffffffffffffffffffffffffffff1673ffffffffffffffffffffffffffffffffffffffff1673ffffffffffffffffffffffffffffffffffffffff1681526020016008820154815260200160098201548152602001600e820160009054906101000a900460ff166003811115610bf957fe5b6003811115610c0457fe5b81525050806000015173ffffffffffffffffffffffffffffffffffffffff163373ffffffffffffffffffffffffffffffffffffffff16141515610c4657600080fd5b60026003811115610c5357fe5b601c6000888152602001908152602001600020600e0160009054906101000a900460ff166003811115610c8257fe5b141515610c8e57600080fd5b610384610e10601c60008981526020019081526020016000206009015402601c60008981526020019081526020016000206008015401014210151515610cd357600080fd5b601c600087815260200190815260200160002060000160009054906101000a900473ffffffffffffffffffffffffffffffffffffffff1673ffffffffffffffffffffffffffffffffffffffff16601c600088815260200190815260200160002060070160009054906101000a900473ffffffffffffffffffffffffffffffffffffffff1673ffffffffffffffffffffffffffffffffffffffff161415610e595782601c6000888152602001908152602001600020600601819055506000601c600088815260200190815260200160002060070160006101000a81548173ffffffffffffffffffffffffffffffffffffffff021916908373ffffffffffffffffffffffffffffffffffffffff1602179055506000601c6000888152602001908152602001600020600801819055506000601c6000888152602001908152602001600020600901819055506000601c6000888152602001908152602001600020600e0160006101000a81548160ff02191690836003811115610e4f57fe5b0217905550611237565b601c600087815260200190815260200160002060000160009054906101000a900473ffffffffffffffffffffffffffffffffffffffff169350601c6000878152602001908152602001600020600601549250601c600087815260200190815260200160002060070160009054906101000a900473ffffffffffffffffffffffffffffffffffffffff1691508373ffffffffffffffffffffffffffffffffffffffff166108fc66038d7ea4c6800085029081150290604051600060405180830381858888f19350505050158015610f33573d6000803e3d6000fd5b5081601c600088815260200190815260200160002060000160006101000a81548173ffffffffffffffffffffffffffffffffffffffff021916908373ffffffffffffffffffffffffffffffffffffffff1602179055508160206000601b54815260200190815260200160002060006101000a81548173ffffffffffffffffffffffffffffffffffffffff021916908373ffffffffffffffffffffffffffffffffffffffff1602179055507f31bc52c97b0c9df927d5bb961bc48c4257ac95b554b7cbc12b1a68919fdef5d44285848660405180806020018681526020018573ffffffffffffffffffffffffffffffffffffffff1673ffffffffffffffffffffffffffffffffffffffff1681526020018473ffffffffffffffffffffffffffffffffffffffff1673ffffffffffffffffffffffffffffffffffffffff168152602001838152602001828103825260078152602001807f61756374696f6e000000000000000000000000000000000000000000000000008152506020019550505050505060405180910390a16101f485111515156110ce57600080fd5b84601d60003373ffffffffffffffffffffffffffffffffffffffff1673ffffffffffffffffffffffffffffffffffffffff168152602001908152602001600020600082825401925050819055506001601e60003373ffffffffffffffffffffffffffffffffffffffff1673ffffffffffffffffffffffffffffffffffffffff16815260200190815260200160002060008282540192505081905550601e60003373ffffffffffffffffffffffffffffffffffffffff1673ffffffffffffffffffffffffffffffffffffffff16815260200190815260200160002054601d60003373ffffffffffffffffffffffffffffffffffffffff1673ffffffffffffffffffffffffffffffffffffffff168152602001908152602001600020548115156111f257fe5b04601f60003373ffffffffffffffffffffffffffffffffffffffff1673ffffffffffffffffffffffffffffffffffffffff168152602001908152602001600020819055505b505050505050565b601c600082815260200190815260200160002061016060405190810160405290816000820160009054906101000a900473ffffffffffffffffffffffffffffffffffffffff1673ffffffffffffffffffffffffffffffffffffffff1673ffffffffffffffffffffffffffffffffffffffff1681526020016001820180548060200260200160405190810160405280929190818152602001828054801561133a57602002820191906000526020600020905b8160009054906101000a900473ffffffffffffffffffffffffffffffffffffffff1673ffffffffffffffffffffffffffffffffffffffff16815260200190600101908083116112f0575b505050505081526020016002820160009054906101000a900473ffffffffffffffffffffffffffffffffffffffff1673ffffffffffffffffffffffffffffffffffffffff1673ffffffffffffffffffffffffffffffffffffffff1681526020016003820160009054906101000a900473ffffffffffffffffffffffffffffffffffffffff1673ffffffffffffffffffffffffffffffffffffffff1673ffffffffffffffffffffffffffffffffffffffff1681526020016004820154815260200160058201548152602001600682015481526020016007820160009054906101000a900473ffffffffffffffffffffffffffffffffffffffff1673ffffffffffffffffffffffffffffffffffffffff1673ffffffffffffffffffffffffffffffffffffffff1681526020016008820154815260200160098201548152602001600e820160009054906101000a900460ff16600381111561149557fe5b60038111156114a057fe5b81525050806000015173ffffffffffffffffffffffffffffffffffffffff163373ffffffffffffffffffffffffffffffffffffffff16141515156114e357600080fd5b600082101580156114f5575060098211155b151561150057600080fd5b3360098360098110151561151057fe5b0160006101000a81548173ffffffffffffffffffffffffffffffffffffffff021916908373ffffffffffffffffffffffffffffffffffffffff160217905550610e10601c60008481526020019081526020016000206009015402601c60008481526020019081526020016000206008015401421115151561159057600080fd5b6002600381111561159d57fe5b601c6000848152602001908152602001600020600e0160009054906101000a900460ff1660038111156115cc57fe5b1415156115d857600080fd5b66038d7ea4c68000601c600084815260200190815260200160002060060154023411151561160557600080fd5b601c600083815260200190815260200160002060070160009054906101000a900473ffffffffffffffffffffffffffffffffffffffff1673ffffffffffffffffffffffffffffffffffffffff166108fc66038d7ea4c68000601c600086815260200190815260200160002060060154029081150290604051600060405180830381858888f193505050501580156116a0573d6000803e3d6000fd5b5033601c600084815260200190815260200160002060070160006101000a81548173ffffffffffffffffffffffffffffffffffffffff021916908373ffffffffffffffffffffffffffffffffffffffff16021790555066038d7ea4c680003481151561170857fe5b04601c6000848152602001908152602001600020600601819055505050565b61172f613590565b6009808060200260405190810160405280929190826009801561179d576020028201915b8160009054906101000a900473ffffffffffffffffffffffffffffffffffffffff1673ffffffffffffffffffffffffffffffffffffffff1681526020019060010190808311611753575b5050505050905090565b60008082101580156117ba575060098211155b15156117c557600080fd5b336000836009811015156117d557fe5b0160006101000a81548173ffffffffffffffffffffffffffffffffffffffff021916908373ffffffffffffffffffffffffffffffffffffffff160217905550610160604051908101604052803373ffffffffffffffffffffffffffffffffffffffff168152602001600060405190808252806020026020018201604052801561186d5781602001602082028038833980820191505090505b508152602001600073ffffffffffffffffffffffffffffffffffffffff168152602001600073ffffffffffffffffffffffffffffffffffffffff168152602001600081526020016000815260200160008152602001600073ffffffffffffffffffffffffffffffffffffffff1681526020016000815260200160008152602001600060038111156118fa57fe5b815250601c6000601b54815260200190815260200160002060008201518160000160006101000a81548173ffffffffffffffffffffffffffffffffffffffff021916908373ffffffffffffffffffffffffffffffffffffffff16021790555060208201518160010190805190602001906119759291906135b4565b5060408201518160020160006101000a81548173ffffffffffffffffffffffffffffffffffffffff021916908373ffffffffffffffffffffffffffffffffffffffff16021790555060608201518160030160006101000a81548173ffffffffffffffffffffffffffffffffffffffff021916908373ffffffffffffffffffffffffffffffffffffffff1602179055506080820151816004015560a0820151816005015560c0820151816006015560e08201518160070160006101000a81548173ffffffffffffffffffffffffffffffffffffffff021916908373ffffffffffffffffffffffffffffffffffffffff1602179055506101008201518160080155610120820151816009015561014082015181600e0160006101000a81548160ff02191690836003811115611aa457fe5b02179055509050503360206000601b54815260200190815260200160002060006101000a81548173ffffffffffffffffffffffffffffffffffffffff021916908373ffffffffffffffffffffffffffffffffffffffff1602179055506001601b5401601b819055506001601b54039050919050565b611b21613590565b6000600980602002604051908101604052809291908260098015611b90576020028201915b8160009054906101000a900473ffffffffffffffffffffffffffffffffffffffff1673ffffffffffffffffffffffffffffffffffffffff1681526020019060010190808311611b46575b5050505050905090565b601c600084815260200190815260200160002061016060405190810160405290816000820160009054906101000a900473ffffffffffffffffffffffffffffffffffffffff1673ffffffffffffffffffffffffffffffffffffffff1673ffffffffffffffffffffffffffffffffffffffff16815260200160018201805480602002602001604051908101604052809291908181526020018280548015611c9557602002820191906000526020600020905b8160009054906101000a900473ffffffffffffffffffffffffffffffffffffffff1673ffffffffffffffffffffffffffffffffffffffff1681526020019060010190808311611c4b575b505050505081526020016002820160009054906101000a900473ffffffffffffffffffffffffffffffffffffffff1673ffffffffffffffffffffffffffffffffffffffff1673ffffffffffffffffffffffffffffffffffffffff1681526020016003820160009054906101000a900473ffffffffffffffffffffffffffffffffffffffff1673ffffffffffffffffffffffffffffffffffffffff1673ffffffffffffffffffffffffffffffffffffffff1681526020016004820154815260200160058201548152602001600682015481526020016007820160009054906101000a900473ffffffffffffffffffffffffffffffffffffffff1673ffffffffffffffffffffffffffffffffffffffff1673ffffffffffffffffffffffffffffffffffffffff1681526020016008820154815260200160098201548152602001600e820160009054906101000a900460ff166003811115611df057fe5b6003811115611dfb57fe5b81525050806000015173ffffffffffffffffffffffffffffffffffffffff163373ffffffffffffffffffffffffffffffffffffffff16141515611e3d57600080fd5b50505050565b600080601c600086815260200190815260200160002061016060405190810160405290816000820160009054906101000a900473ffffffffffffffffffffffffffffffffffffffff1673ffffffffffffffffffffffffffffffffffffffff1673ffffffffffffffffffffffffffffffffffffffff16815260200160018201805480602002602001604051908101604052809291908181526020018280548015611f4157602002820191906000526020600020905b8160009054906101000a900473ffffffffffffffffffffffffffffffffffffffff1673ffffffffffffffffffffffffffffffffffffffff1681526020019060010190808311611ef7575b505050505081526020016002820160009054906101000a900473ffffffffffffffffffffffffffffffffffffffff1673ffffffffffffffffffffffffffffffffffffffff1673ffffffffffffffffffffffffffffffffffffffff1681526020016003820160009054906101000a900473ffffffffffffffffffffffffffffffffffffffff1673ffffffffffffffffffffffffffffffffffffffff1673ffffffffffffffffffffffffffffffffffffffff1681526020016004820154815260200160058201548152602001600682015481526020016007820160009054906101000a900473ffffffffffffffffffffffffffffffffffffffff1673ffffffffffffffffffffffffffffffffffffffff1673ffffffffffffffffffffffffffffffffffffffff1681526020016008820154815260200160098201548152602001600e820160009054906101000a900460ff16600381111561209c57fe5b60038111156120a757fe5b81525050806000015173ffffffffffffffffffffffffffffffffffffffff163373ffffffffffffffffffffffffffffffffffffffff161415156120e957600080fd5b6101f484111515156120fa57600080fd5b601c6000878152602001908152602001600020600a0160008673ffffffffffffffffffffffffffffffffffffffff1673ffffffffffffffffffffffffffffffffffffffff168152602001908152602001600020549250601c6000878152602001908152602001600020600b0160008673ffffffffffffffffffffffffffffffffffffffff1673ffffffffffffffffffffffffffffffffffffffff168152602001908152602001600020549150620151808202830142101515156121bc57600080fd5b601c6000878152602001908152602001600020600101601c6000888152602001908152602001600020600d0160008773ffffffffffffffffffffffffffffffffffffffff1673ffffffffffffffffffffffffffffffffffffffff1681526020019081526020016000205481548110151561223257fe5b9060005260206000200160006101000a81549073ffffffffffffffffffffffffffffffffffffffff021916905583601d60003373ffffffffffffffffffffffffffffffffffffffff1673ffffffffffffffffffffffffffffffffffffffff168152602001908152602001600020600082825401925050819055506001601e60003373ffffffffffffffffffffffffffffffffffffffff1673ffffffffffffffffffffffffffffffffffffffff16815260200190815260200160002060008282540192505081905550601e60003373ffffffffffffffffffffffffffffffffffffffff1673ffffffffffffffffffffffffffffffffffffffff16815260200190815260200160002054601d60003373ffffffffffffffffffffffffffffffffffffffff1673ffffffffffffffffffffffffffffffffffffffff1681526020019081526020016000205481151561238357fe5b04601f60003373ffffffffffffffffffffffffffffffffffffffff1673ffffffffffffffffffffffffffffffffffffffff16815260200190815260200160002081905550505050505050565b6000806000601c600088815260200190815260200160002061016060405190810160405290816000820160009054906101000a900473ffffffffffffffffffffffffffffffffffffffff1673ffffffffffffffffffffffffffffffffffffffff1673ffffffffffffffffffffffffffffffffffffffff168152602001600182018054806020026020016040519081016040528092919081815260200182805480156124cf57602002820191906000526020600020905b8160009054906101000a900473ffffffffffffffffffffffffffffffffffffffff1673ffffffffffffffffffffffffffffffffffffffff1681526020019060010190808311612485575b505050505081526020016002820160009054906101000a900473ffffffffffffffffffffffffffffffffffffffff1673ffffffffffffffffffffffffffffffffffffffff1673ffffffffffffffffffffffffffffffffffffffff1681526020016003820160009054906101000a900473ffffffffffffffffffffffffffffffffffffffff1673ffffffffffffffffffffffffffffffffffffffff1673ffffffffffffffffffffffffffffffffffffffff1681526020016004820154815260200160058201548152602001600682015481526020016007820160009054906101000a900473ffffffffffffffffffffffffffffffffffffffff1673ffffffffffffffffffffffffffffffffffffffff1673ffffffffffffffffffffffffffffffffffffffff1681526020016008820154815260200160098201548152602001600e820160009054906101000a900460ff16600381111561262a57fe5b600381111561263557fe5b81525050806000015173ffffffffffffffffffffffffffffffffffffffff163373ffffffffffffffffffffffffffffffffffffffff161415151561267857600080fd5b60038081111561268457fe5b601c60008a8152602001908152602001600020600e0160009054906101000a900460ff1660038111156126b357fe5b1415156126bf57600080fd5b601c600089815260200190815260200160002060030160009054906101000a900473ffffffffffffffffffffffffffffffffffffffff1673ffffffffffffffffffffffffffffffffffffffff163373ffffffffffffffffffffffffffffffffffffffff1614151561272f57600080fd5b66038d7ea4c68000601c60008a815260200190815260200160002060050154023414151561275c57600080fd5b6000881015801561276e575060098811155b151561277957600080fd5b3360098960098110151561278957fe5b0160006101000a81548173ffffffffffffffffffffffffffffffffffffffff021916908373ffffffffffffffffffffffffffffffffffffffff160217905550601c6000898152602001908152602001600020600501549250601c60008981526020019081526020016000206001013390806001815401808255809150509060018203906000526020600020016000909192909190916101000a81548173ffffffffffffffffffffffffffffffffffffffff021916908373ffffffffffffffffffffffffffffffffffffffff160217905550506001601c60008a81526020019081526020016000206001018054905003915081601c60008a8152602001908152602001600020600d0160003373ffffffffffffffffffffffffffffffffffffffff1673ffffffffffffffffffffffffffffffffffffffff16815260200190815260200160002081905550601c600089815260200190815260200160002060000160009054906101000a900473ffffffffffffffffffffffffffffffffffffffff1673ffffffffffffffffffffffffffffffffffffffff166108fc66038d7ea4c68000601c60008c815260200190815260200160002060050154029081150290604051600060405180830381858888f1935050505015801561296d573d6000803e3d6000fd5b506201518087024201601c60008a8152602001908152602001600020600a0160003373ffffffffffffffffffffffffffffffffffffffff1673ffffffffffffffffffffffffffffffffffffffff1681526020019081526020016000208190555085601c60008a8152602001908152602001600020600b0160003373ffffffffffffffffffffffffffffffffffffffff1673ffffffffffffffffffffffffffffffffffffffff1681526020019081526020016000208190555084601c60008a8152602001908152602001600020600c0160003373ffffffffffffffffffffffffffffffffffffffff1673ffffffffffffffffffffffffffffffffffffffff1681526020019081526020016000209080519060200190612a8c92919061363e565b507f31bc52c97b0c9df927d5bb961bc48c4257ac95b554b7cbc12b1a68919fdef5d442601c60008b815260200190815260200160002060000160009054906101000a900473ffffffffffffffffffffffffffffffffffffffff16338660405180806020018681526020018573ffffffffffffffffffffffffffffffffffffffff1673ffffffffffffffffffffffffffffffffffffffff1681526020018473ffffffffffffffffffffffffffffffffffffffff1673ffffffffffffffffffffffffffffffffffffffff168152602001838152602001828103825260048152602001807f72656e74000000000000000000000000000000000000000000000000000000008152506020019550505050505060405180910390a1819350505050949350505050565b601281600981101515612bc057fe5b016000915090505481565b60008210158015612bdd575060098211155b1515612be857600080fd5b80601283600981101515612bf857fe5b01819055505050565b600981600981101515612c1057fe5b016000915054906101000a900473ffffffffffffffffffffffffffffffffffffffff1681565b6000806000601c600085815260200190815260200160002061016060405190810160405290816000820160009054906101000a900473ffffffffffffffffffffffffffffffffffffffff1673ffffffffffffffffffffffffffffffffffffffff1673ffffffffffffffffffffffffffffffffffffffff16815260200160018201805480602002602001604051908101604052809291908181526020018280548015612d3657602002820191906000526020600020905b8160009054906101000a900473ffffffffffffffffffffffffffffffffffffffff1673ffffffffffffffffffffffffffffffffffffffff1681526020019060010190808311612cec575b505050505081526020016002820160009054906101000a900473ffffffffffffffffffffffffffffffffffffffff1673ffffffffffffffffffffffffffffffffffffffff1673ffffffffffffffffffffffffffffffffffffffff1681526020016003820160009054906101000a900473ffffffffffffffffffffffffffffffffffffffff1673ffffffffffffffffffffffffffffffffffffffff1673ffffffffffffffffffffffffffffffffffffffff1681526020016004820154815260200160058201548152602001600682015481526020016007820160009054906101000a900473ffffffffffffffffffffffffffffffffffffffff1673ffffffffffffffffffffffffffffffffffffffff1673ffffffffffffffffffffffffffffffffffffffff1681526020016008820154815260200160098201548152602001600e820160009054906101000a900460ff166003811115612e9157fe5b6003811115612e9c57fe5b81525050806000015173ffffffffffffffffffffffffffffffffffffffff163373ffffffffffffffffffffffffffffffffffffffff1614151515612edf57600080fd5b60016003811115612eec57fe5b601c6000878152602001908152602001600020600e0160009054906101000a900460ff166003811115612f1b57fe5b141515612f2757600080fd5b601c600086815260200190815260200160002060000160009054906101000a900473ffffffffffffffffffffffffffffffffffffffff1673ffffffffffffffffffffffffffffffffffffffff163373ffffffffffffffffffffffffffffffffffffffff1614151515612f9857600080fd5b601c600086815260200190815260200160002060020160009054906101000a900473ffffffffffffffffffffffffffffffffffffffff1673ffffffffffffffffffffffffffffffffffffffff163373ffffffffffffffffffffffffffffffffffffffff16148061306a5750600073ffffffffffffffffffffffffffffffffffffffff16601c600087815260200190815260200160002060020160009054906101000a900473ffffffffffffffffffffffffffffffffffffffff1673ffffffffffffffffffffffffffffffffffffffff16145b151561307557600080fd5b66038d7ea4c68000601c60008781526020019081526020016000206004015402341415156130a257600080fd5b600085101580156130b4575060098511155b15156130bf57600080fd5b336009866009811015156130cf57fe5b0160006101000a81548173ffffffffffffffffffffffffffffffffffffffff021916908373ffffffffffffffffffffffffffffffffffffffff160217905550601c600086815260200190815260200160002060000160009054906101000a900473ffffffffffffffffffffffffffffffffffffffff169350339250601c600086815260200190815260200160002060040154915061316c856134ff565b8373ffffffffffffffffffffffffffffffffffffffff166108fc66038d7ea4c6800084029081150290604051600060405180830381858888f193505050501580156131bb573d6000803e3d6000fd5b5082601c600087815260200190815260200160002060000160006101000a81548173ffffffffffffffffffffffffffffffffffffffff021916908373ffffffffffffffffffffffffffffffffffffffff1602179055508260206000601b54815260200190815260200160002060006101000a81548173ffffffffffffffffffffffffffffffffffffffff021916908373ffffffffffffffffffffffffffffffffffffffff1602179055507f31bc52c97b0c9df927d5bb961bc48c4257ac95b554b7cbc12b1a68919fdef5d44285858560405180806020018681526020018573ffffffffffffffffffffffffffffffffffffffff1673ffffffffffffffffffffffffffffffffffffffff1681526020018473ffffffffffffffffffffffffffffffffffffffff1673ffffffffffffffffffffffffffffffffffffffff168152602001838152602001828103825260038152602001807f62757900000000000000000000000000000000000000000000000000000000008152506020019550505050505060405180910390a16101f4601d60003373ffffffffffffffffffffffffffffffffffffffff1673ffffffffffffffffffffffffffffffffffffffff168152602001908152602001600020600082825401925050819055506001601e60003373ffffffffffffffffffffffffffffffffffffffff1673ffffffffffffffffffffffffffffffffffffffff16815260200190815260200160002060008282540192505081905550601e60003373ffffffffffffffffffffffffffffffffffffffff1673ffffffffffffffffffffffffffffffffffffffff16815260200190815260200160002054601d60003373ffffffffffffffffffffffffffffffffffffffff1673ffffffffffffffffffffffffffffffffffffffff1681526020019081526020016000205481151561346b57fe5b04601f60003373ffffffffffffffffffffffffffffffffffffffff1673ffffffffffffffffffffffffffffffffffffffff168152602001908152602001600020819055505050505050565b6000601f60008373ffffffffffffffffffffffffffffffffffffffff1673ffffffffffffffffffffffffffffffffffffffff168152602001908152602001600020549050919050565b6000601c6000838152602001908152602001600020600e0160006101000a81548160ff0219169083600381111561353257fe5b02179055506000601c600083815260200190815260200160002060020160006101000a81548173ffffffffffffffffffffffffffffffffffffffff021916908373ffffffffffffffffffffffffffffffffffffffff16021790555050565b61012060405190810160405280600990602082028038833980820191505090505090565b82805482825590600052602060002090810192821561362d579160200282015b8281111561362c5782518260006101000a81548173ffffffffffffffffffffffffffffffffffffffff021916908373ffffffffffffffffffffffffffffffffffffffff160217905550916020019190600101906135d4565b5b50905061363a91906136be565b5090565b828054600181600116156101000203166002900490600052602060002090601f016020900481019282601f1061367f57805160ff19168380011785556136ad565b828001600101855582156136ad579182015b828111156136ac578251825591602001919060010190613691565b5b5090506136ba9190613701565b5090565b6136fe91905b808211156136fa57600081816101000a81549073ffffffffffffffffffffffffffffffffffffffff0219169055506001016136c4565b5090565b90565b61372391905b8082111561371f576000816000905550600101613707565b5090565b905600a165627a7a72305820236395acf90a3520624b1caf4398cf8a6d8e66c9dc5c0d47a9d646981fc2ec5f0029",
  "source": "pragma solidity ^0.4.2;\r\n\r\n//Art class for artwork\r\ncontract DigiArtPlat{\r\n    // function DigiArtPlat() public{\r\n    // }\r\n\r\n    address[9] public userDat;\r\n    address[9] public buyerDat;\r\n    uint[9] public prices;\r\n\r\n    enum ArtStates { hold, selling, auctioning, renting}\r\n    struct Art{\r\n        address owner;\r\n        address[] users;\r\n        address targetBuyer;\r\n        address targetRenter;\r\n        uint currentPrice;\r\n        uint currentRent;       //rent per day\r\n        uint currentBid;\r\n        address winning;\r\n        uint auctionStart;\r\n        uint auctionDuration; //in hours\r\n        mapping (address=>uint) rentStart;\r\n        mapping (address=>uint) rentDuration; //in days\r\n        mapping (address=>string) destination;\r\n        mapping (address=>uint) userIndex;\r\n        ArtStates state;\r\n    }\r\n    uint artID = 0;\r\n    mapping (uint=>Art) arts;\r\n    mapping (address=>uint) score;\r\n    mapping (address=>uint) ratingCount;\r\n    mapping (address=>uint) rating;\r\n    mapping (uint=>address) toOwner;\r\n\r\n    event Transfer(string txType, uint time, address from, address to, uint price);\r\n    event Creation(uint time, address artist);\r\n\r\n\r\n    modifier onlyOwner(Art a) {\r\n        require(msg.sender == a.owner);\r\n        _;\r\n    }\r\n\r\n    modifier notOwner(Art a) {\r\n        require(msg.sender != a.owner);\r\n        _;\r\n    }\r\n\r\n    function createArt(uint Id) public returns(uint){\r\n\r\n        require(Id >= 0 && Id <= 9);\r\n\r\n        userDat[Id] = msg.sender;\r\n\r\n        arts[artID] = Art({\r\n            owner: msg.sender,\r\n            users: new address[](0),\r\n            targetBuyer: address(0),\r\n            targetRenter: address(0),\r\n            currentPrice: 0,\r\n            currentRent: 0,\r\n            //rent per day\r\n            currentBid: 0,\r\n            winning: address(0),\r\n            auctionStart: 0,\r\n            auctionDuration: 0,\r\n            state: ArtStates.hold\r\n            });\r\n        toOwner[artID] = msg.sender;\r\n        artID = artID+1;\r\n        return artID - 1;\r\n    }\r\n\r\n\r\n    function initiateSale(uint ID, uint _price) /*, address _to ) public onlyOwner(arts[ID]) */{\r\n        \r\n        require(ID >= 0 && ID <= 9);\r\n\r\n        prices[ID] = _price;\r\n\r\n\r\n\r\n        //artist can either set a target buyer or not(open sale)\r\n        // require(_to != address(this) && _to != arts[ID].owner);\r\n        // require(arts[ID].state == ArtStates.hold);\r\n\r\n        // arts[ID].state = ArtStates.selling;\r\n\r\n        // arts[ID].targetBuyer = _to;\r\n\r\n        // arts[ID].currentPrice = _price;\r\n    }\r\n\r\n    function initialRent(uint ID, uint _rent, address _to) public onlyOwner(arts[ID]){\r\n        // require(_to != address(this) && _to != arts[ID].owner);\r\n        // require(arts[ID].state == ArtStates.hold);\r\n\r\n        // arts[ID].state = ArtStates.renting;\r\n\r\n        // arts[ID].targetRenter = _to;\r\n\r\n        // arts[ID].currentRent = _rent;\r\n    }\r\n\r\n    function initiateAuction(uint ID, uint _price, uint duration) public onlyOwner(arts[ID]) {\r\n        require(arts[ID].state == ArtStates.hold);\r\n\r\n        arts[ID].state = ArtStates.auctioning;\r\n\r\n        arts[ID].currentBid = _price;\r\n        arts[ID].winning = arts[ID].owner;\r\n        arts[ID].auctionStart = now;\r\n        arts[ID].auctionDuration = duration;\r\n    }\r\n\r\n    function resetSale(uint ID) private {\r\n        arts[ID].state = ArtStates.hold;\r\n        arts[ID].targetBuyer = address(0);\r\n    }\r\n\r\n    function buy(uint ID) public notOwner(arts[ID]) payable {\r\n        require(arts[ID].state == ArtStates.selling);\r\n        require(msg.sender != arts[ID].owner);\r\n        require(msg.sender == arts[ID].targetBuyer || arts[ID].targetBuyer == address(0));\r\n        require(msg.value == arts[ID].currentPrice * 1 finney);\r\n\r\n        require(ID >= 0 && ID <= 9);\r\n\r\n        buyerDat[ID] = msg.sender;\r\n\r\n        // Change ownership\r\n        address prevOwner = arts[ID].owner;\r\n        address newOwner = msg.sender;\r\n        uint salePrice = arts[ID].currentPrice;\r\n\r\n        // Transaction cleanup\r\n        resetSale(ID);\r\n\r\n        prevOwner.transfer(salePrice* 1 finney);\r\n        arts[ID].owner = newOwner;\r\n        toOwner[artID] = newOwner;\r\n        emit Transfer(\"buy\", now, prevOwner, newOwner, salePrice);\r\n\r\n        score[msg.sender] += 500;\r\n        ratingCount[msg.sender] += 1;\r\n        rating[msg.sender] = score[msg.sender]/ratingCount[msg.sender];\r\n\r\n    }\r\n\r\n    function rent(uint ID, uint start, uint duration, string destination)public notOwner(arts[ID]) payable returns(uint){\r\n        //to subscribe, need to call this function\r\n        require(arts[ID].state == ArtStates.renting);\r\n        require(msg.sender == arts[ID].targetRenter);\r\n        require(msg.value == arts[ID].currentRent * 1 finney);\r\n\r\n        require(ID >= 0 && ID <= 9);\r\n\r\n        buyerDat[ID] = msg.sender;\r\n\r\n        uint rentPrice = arts[ID].currentRent;\r\n        arts[ID].users.push(msg.sender);\r\n        uint index = arts[ID].users.length-1;\r\n        arts[ID].userIndex[msg.sender] = index;\r\n        arts[ID].owner.transfer(arts[ID].currentRent* 1 finney);\r\n        arts[ID].rentStart[msg.sender] = now + start * 1 days;\r\n        arts[ID].rentDuration[msg.sender] = duration;\r\n        arts[ID].destination[msg.sender] = destination;\r\n        emit Transfer(\"rent\", now, arts[ID].owner, msg.sender, rentPrice);\r\n        return index;\r\n    }\r\n\r\n    function endRent(uint ID, address _renter,uint rate) public onlyOwner(arts[ID]){\r\n        require(rate<=500);\r\n        uint start = arts[ID].rentStart[_renter];\r\n        uint duration = arts[ID].rentDuration[_renter];\r\n        require(now>=(start + duration * 1 days));\r\n        delete arts[ID].users[arts[ID].userIndex[_renter]];\r\n\r\n        score[msg.sender] +=rate;\r\n        ratingCount[msg.sender] +=1;\r\n        rating[msg.sender] = score[msg.sender]/ratingCount[msg.sender];\r\n    }\r\n\r\n    function bid(uint ID) public notOwner(arts[ID]) payable{\r\n\r\n        require(ID >= 0 && ID <= 9);\r\n\r\n        buyerDat[ID] = msg.sender;\r\n\r\n        require(now<=arts[ID].auctionStart+arts[ID].auctionDuration * 1 hours);\r\n        require(arts[ID].state == ArtStates.auctioning);\r\n        require(msg.value>arts[ID].currentBid*1 finney);\r\n        arts[ID].winning.transfer(arts[ID].currentBid* 1 finney);\r\n        //address prevWinning = arts[ID].winning;\r\n        arts[ID].winning = msg.sender;\r\n        arts[ID].currentBid = msg.value/1000000000000000;\r\n\r\n    }\r\n\r\n    function closeAuction(uint ID, uint rate) public onlyOwner(arts[ID]){\r\n        require(arts[ID].state == ArtStates.auctioning);\r\n        require(now>=arts[ID].auctionStart+arts[ID].auctionDuration * 1 hours+15 minutes); //duration is in hours\r\n        if (arts[ID].winning == arts[ID].owner){\r\n            arts[ID].currentBid = _price;\r\n            arts[ID].winning = address(0);\r\n            arts[ID].auctionStart = 0;\r\n            arts[ID].auctionDuration = 0;\r\n            arts[ID].state = ArtStates.hold;\r\n        }else{\r\n            address prevOwner = arts[ID].owner;\r\n            uint _price = arts[ID].currentBid;\r\n            address winner = arts[ID].winning;\r\n            prevOwner.transfer(_price* 1 finney);\r\n            arts[ID].owner = winner;\r\n            toOwner[artID] = winner;\r\n            emit Transfer(\"auction\", now, prevOwner, winner, _price);\r\n            require(rate<=500);\r\n            score[msg.sender] += rate;\r\n            ratingCount[msg.sender] += 1;\r\n            rating[msg.sender] = score[msg.sender]/ratingCount[msg.sender];\r\n        }\r\n\r\n    }\r\n\r\n    function checkRating(address user) public returns(uint){\r\n        return rating[user];\r\n    }\r\n\r\n    //function subscribe(uint ID,) public notOwner(arts[ID]){\r\n\r\n    //}\r\n\r\n    function getUser() public view returns (address[9]) {\r\n        return userDat;\r\n    }\r\n\r\n    function getBuyer() public view returns (address[9]) {\r\n        return buyerDat;\r\n    }\r\n\r\n\r\n}\r\n",
  "sourcePath": "C:\\Users\\Jing Jiang\\Digi-Art-Platform\\truffle-source\\contracts\\DigiArtPlat.sol",
  "compiler": {
    "name": "solc",
    "version": "0.4.23+commit.124ca40d.Emscripten.clang"
  },
  "schemaVersion": "2.0.0",
  "updatedAt": "2018-05-07T06:29:20.450Z"
}