{
  "contractName": "DigiArtPlat",
  "abi": [
    {
      "constant": true,
      "inputs": [
        {
          "name": "",
          "type": "uint256"
        }
      ],
      "name": "user",
      "outputs": [
        {
          "name": "",
          "type": "address"
        }
      ],
      "payable": false,
      "stateMutability": "view",
      "type": "function"
    },
    {
      "anonymous": false,
      "inputs": [
        {
          "indexed": false,
          "name": "txType",
          "type": "string"
        },
        {
          "indexed": false,
          "name": "time",
          "type": "uint256"
        },
        {
          "indexed": false,
          "name": "from",
          "type": "address"
        },
        {
          "indexed": false,
          "name": "to",
          "type": "address"
        },
        {
          "indexed": false,
          "name": "price",
          "type": "uint256"
        }
      ],
      "name": "Transfer",
      "type": "event"
    },
    {
      "anonymous": false,
      "inputs": [
        {
          "indexed": false,
          "name": "time",
          "type": "uint256"
        },
        {
          "indexed": false,
          "name": "artist",
          "type": "address"
        }
      ],
      "name": "Creation",
      "type": "event"
    },
    {
      "constant": false,
      "inputs": [],
      "name": "createArt",
      "outputs": [
        {
          "name": "",
          "type": "uint256"
        }
      ],
      "payable": false,
      "stateMutability": "nonpayable",
      "type": "function"
    },
    {
      "constant": false,
      "inputs": [
        {
          "name": "ID",
          "type": "uint256"
        },
        {
          "name": "_price",
          "type": "uint256"
        },
        {
          "name": "_to",
          "type": "address"
        }
      ],
      "name": "initiateSale",
      "outputs": [],
      "payable": false,
      "stateMutability": "nonpayable",
      "type": "function"
    },
    {
      "constant": false,
      "inputs": [
        {
          "name": "ID",
          "type": "uint256"
        },
        {
          "name": "_rent",
          "type": "uint256"
        },
        {
          "name": "_to",
          "type": "address"
        }
      ],
      "name": "initialRent",
      "outputs": [],
      "payable": false,
      "stateMutability": "nonpayable",
      "type": "function"
    },
    {
      "constant": false,
      "inputs": [
        {
          "name": "ID",
          "type": "uint256"
        },
        {
          "name": "_price",
          "type": "uint256"
        },
        {
          "name": "duration",
          "type": "uint256"
        }
      ],
      "name": "initiateAuction",
      "outputs": [],
      "payable": false,
      "stateMutability": "nonpayable",
      "type": "function"
    },
    {
      "constant": false,
      "inputs": [
        {
          "name": "ID",
          "type": "uint256"
        }
      ],
      "name": "buy",
      "outputs": [],
      "payable": true,
      "stateMutability": "payable",
      "type": "function"
    },
    {
      "constant": false,
      "inputs": [
        {
          "name": "ID",
          "type": "uint256"
        },
        {
          "name": "start",
          "type": "uint256"
        },
        {
          "name": "duration",
          "type": "uint256"
        },
        {
          "name": "destination",
          "type": "string"
        }
      ],
      "name": "rent",
      "outputs": [
        {
          "name": "",
          "type": "uint256"
        }
      ],
      "payable": true,
      "stateMutability": "payable",
      "type": "function"
    },
    {
      "constant": false,
      "inputs": [
        {
          "name": "ID",
          "type": "uint256"
        },
        {
          "name": "_renter",
          "type": "address"
        },
        {
          "name": "rate",
          "type": "uint256"
        }
      ],
      "name": "endRent",
      "outputs": [],
      "payable": false,
      "stateMutability": "nonpayable",
      "type": "function"
    },
    {
      "constant": false,
      "inputs": [
        {
          "name": "ID",
          "type": "uint256"
        }
      ],
      "name": "bid",
      "outputs": [],
      "payable": true,
      "stateMutability": "payable",
      "type": "function"
    },
    {
      "constant": false,
      "inputs": [
        {
          "name": "ID",
          "type": "uint256"
        },
        {
          "name": "rate",
          "type": "uint256"
        }
      ],
      "name": "closeAuction",
      "outputs": [],
      "payable": false,
      "stateMutability": "nonpayable",
      "type": "function"
    },
    {
      "constant": false,
      "inputs": [
        {
          "name": "user",
          "type": "address"
        }
      ],
      "name": "checkRating",
      "outputs": [
        {
          "name": "",
          "type": "uint256"
        }
      ],
      "payable": false,
      "stateMutability": "nonpayable",
      "type": "function"
    },
    {
      "constant": true,
      "inputs": [],
      "name": "getUser",
      "outputs": [
        {
          "name": "",
          "type": "address[16]"
        }
      ],
      "payable": false,
      "stateMutability": "view",
      "type": "function"
    }
  ],
  "bytecode": "0x6080604052600060105534801561001557600080fd5b50613845806100256000396000f3006080604052600436106100ba576000357c0100000000000000000000000000000000000000000000000000000000900463ffffffff16806305b17b09146100bf57806307225006146101165780632586172e146101575780633983a26014610182578063454a2ab3146101b9578063553275be146101d9578063832880e71461024657806388d56b29146102995780638c123f44146102f0578063b27e655814610347578063d96a094a146103d5578063f7943eca146103f5575b600080fd5b3480156100cb57600080fd5b506101146004803603810190808035906020019092919080359060200190929190803573ffffffffffffffffffffffffffffffffffffffff16906020019092919050505061044c565b005b34801561012257600080fd5b5061015560048036038101908080359060200190929190803590602001909291908035906020019092919050505061088e565b005b34801561016357600080fd5b5061016c610c93565b6040518082815260200191505060405180910390f35b34801561018e57600080fd5b506101b76004803603810190808035906020019092919080359060200190929190505050610f44565b005b6101d760048036038101908080359060200190929190505050611788565b005b3480156101e557600080fd5b5061020460048036038101908080359060200190929190505050611c01565b604051808273ffffffffffffffffffffffffffffffffffffffff1673ffffffffffffffffffffffffffffffffffffffff16815260200191505060405180910390f35b34801561025257600080fd5b5061025b611c36565b6040518082601060200280838360005b8381101561028657808201518184015260208101905061026b565b5050505090500191505060405180910390f35b3480156102a557600080fd5b506102ee6004803603810190808035906020019092919080359060200190929190803573ffffffffffffffffffffffffffffffffffffffff169060200190929190505050611cb7565b005b3480156102fc57600080fd5b5061034560048036038101908080359060200190929190803573ffffffffffffffffffffffffffffffffffffffff169060200190929190803590602001909291905050506120f9565b005b6103bf600480360381019080803590602001909291908035906020019092919080359060200190929190803590602001908201803590602001908080601f0160208091040260200160405190810160405280939291908181526020018383808284378201915050505050509192919290505050612685565b6040518082815260200191505060405180910390f35b6103f360048036038101908080359060200190929190505050612df2565b005b34801561040157600080fd5b50610436600480360381019080803573ffffffffffffffffffffffffffffffffffffffff1690602001909291905050506135a9565b6040518082815260200191505060405180910390f35b6011600084815260200190815260200160002061016060405190810160405290816000820160009054906101000a900473ffffffffffffffffffffffffffffffffffffffff1673ffffffffffffffffffffffffffffffffffffffff1673ffffffffffffffffffffffffffffffffffffffff1681526020016001820180548060200260200160405190810160405280929190818152602001828054801561054757602002820191906000526020600020905b8160009054906101000a900473ffffffffffffffffffffffffffffffffffffffff1673ffffffffffffffffffffffffffffffffffffffff16815260200190600101908083116104fd575b505050505081526020016002820160009054906101000a900473ffffffffffffffffffffffffffffffffffffffff1673ffffffffffffffffffffffffffffffffffffffff1673ffffffffffffffffffffffffffffffffffffffff1681526020016003820160009054906101000a900473ffffffffffffffffffffffffffffffffffffffff1673ffffffffffffffffffffffffffffffffffffffff1673ffffffffffffffffffffffffffffffffffffffff1681526020016004820154815260200160058201548152602001600682015481526020016007820160009054906101000a900473ffffffffffffffffffffffffffffffffffffffff1673ffffffffffffffffffffffffffffffffffffffff1673ffffffffffffffffffffffffffffffffffffffff1681526020016008820154815260200160098201548152602001600e820160009054906101000a900460ff1660038111156106a257fe5b60038111156106ad57fe5b81525050806000015173ffffffffffffffffffffffffffffffffffffffff163373ffffffffffffffffffffffffffffffffffffffff161415156106ef57600080fd5b3073ffffffffffffffffffffffffffffffffffffffff168273ffffffffffffffffffffffffffffffffffffffff161415801561078d57506011600085815260200190815260200160002060000160009054906101000a900473ffffffffffffffffffffffffffffffffffffffff1673ffffffffffffffffffffffffffffffffffffffff168273ffffffffffffffffffffffffffffffffffffffff1614155b151561079857600080fd5b600060038111156107a557fe5b60116000868152602001908152602001600020600e0160009054906101000a900460ff1660038111156107d457fe5b1415156107e057600080fd5b600160116000868152602001908152602001600020600e0160006101000a81548160ff0219169083600381111561081357fe5b0217905550816011600086815260200190815260200160002060020160006101000a81548173ffffffffffffffffffffffffffffffffffffffff021916908373ffffffffffffffffffffffffffffffffffffffff16021790555082601160008681526020019081526020016000206004018190555050505050565b6011600084815260200190815260200160002061016060405190810160405290816000820160009054906101000a900473ffffffffffffffffffffffffffffffffffffffff1673ffffffffffffffffffffffffffffffffffffffff1673ffffffffffffffffffffffffffffffffffffffff1681526020016001820180548060200260200160405190810160405280929190818152602001828054801561098957602002820191906000526020600020905b8160009054906101000a900473ffffffffffffffffffffffffffffffffffffffff1673ffffffffffffffffffffffffffffffffffffffff168152602001906001019080831161093f575b505050505081526020016002820160009054906101000a900473ffffffffffffffffffffffffffffffffffffffff1673ffffffffffffffffffffffffffffffffffffffff1673ffffffffffffffffffffffffffffffffffffffff1681526020016003820160009054906101000a900473ffffffffffffffffffffffffffffffffffffffff1673ffffffffffffffffffffffffffffffffffffffff1673ffffffffffffffffffffffffffffffffffffffff1681526020016004820154815260200160058201548152602001600682015481526020016007820160009054906101000a900473ffffffffffffffffffffffffffffffffffffffff1673ffffffffffffffffffffffffffffffffffffffff1673ffffffffffffffffffffffffffffffffffffffff1681526020016008820154815260200160098201548152602001600e820160009054906101000a900460ff166003811115610ae457fe5b6003811115610aef57fe5b81525050806000015173ffffffffffffffffffffffffffffffffffffffff163373ffffffffffffffffffffffffffffffffffffffff16141515610b3157600080fd5b60006003811115610b3e57fe5b60116000868152602001908152602001600020600e0160009054906101000a900460ff166003811115610b6d57fe5b141515610b7957600080fd5b600260116000868152602001908152602001600020600e0160006101000a81548160ff02191690836003811115610bac57fe5b02179055508260116000868152602001908152602001600020600601819055506011600085815260200190815260200160002060000160009054906101000a900473ffffffffffffffffffffffffffffffffffffffff166011600086815260200190815260200160002060070160006101000a81548173ffffffffffffffffffffffffffffffffffffffff021916908373ffffffffffffffffffffffffffffffffffffffff16021790555042601160008681526020019081526020016000206008018190555081601160008681526020019081526020016000206009018190555050505050565b6000610160604051908101604052803373ffffffffffffffffffffffffffffffffffffffff1681526020016000604051908082528060200260200182016040528015610cee5781602001602082028038833980820191505090505b508152602001600073ffffffffffffffffffffffffffffffffffffffff168152602001600073ffffffffffffffffffffffffffffffffffffffff168152602001600081526020016000815260200160008152602001600073ffffffffffffffffffffffffffffffffffffffff168152602001600081526020016000815260200160006003811115610d7b57fe5b81525060116000601054815260200190815260200160002060008201518160000160006101000a81548173ffffffffffffffffffffffffffffffffffffffff021916908373ffffffffffffffffffffffffffffffffffffffff1602179055506020820151816001019080519060200190610df6929190613683565b5060408201518160020160006101000a81548173ffffffffffffffffffffffffffffffffffffffff021916908373ffffffffffffffffffffffffffffffffffffffff16021790555060608201518160030160006101000a81548173ffffffffffffffffffffffffffffffffffffffff021916908373ffffffffffffffffffffffffffffffffffffffff1602179055506080820151816004015560a0820151816005015560c0820151816006015560e08201518160070160006101000a81548173ffffffffffffffffffffffffffffffffffffffff021916908373ffffffffffffffffffffffffffffffffffffffff1602179055506101008201518160080155610120820151816009015561014082015181600e0160006101000a81548160ff02191690836003811115610f2557fe5b0217905550905050600160105401601081905550600160105403905090565b60008060006011600086815260200190815260200160002061016060405190810160405290816000820160009054906101000a900473ffffffffffffffffffffffffffffffffffffffff1673ffffffffffffffffffffffffffffffffffffffff1673ffffffffffffffffffffffffffffffffffffffff1681526020016001820180548060200260200160405190810160405280929190818152602001828054801561104457602002820191906000526020600020905b8160009054906101000a900473ffffffffffffffffffffffffffffffffffffffff1673ffffffffffffffffffffffffffffffffffffffff1681526020019060010190808311610ffa575b505050505081526020016002820160009054906101000a900473ffffffffffffffffffffffffffffffffffffffff1673ffffffffffffffffffffffffffffffffffffffff1673ffffffffffffffffffffffffffffffffffffffff1681526020016003820160009054906101000a900473ffffffffffffffffffffffffffffffffffffffff1673ffffffffffffffffffffffffffffffffffffffff1673ffffffffffffffffffffffffffffffffffffffff1681526020016004820154815260200160058201548152602001600682015481526020016007820160009054906101000a900473ffffffffffffffffffffffffffffffffffffffff1673ffffffffffffffffffffffffffffffffffffffff1673ffffffffffffffffffffffffffffffffffffffff1681526020016008820154815260200160098201548152602001600e820160009054906101000a900460ff16600381111561119f57fe5b60038111156111aa57fe5b81525050806000015173ffffffffffffffffffffffffffffffffffffffff163373ffffffffffffffffffffffffffffffffffffffff161415156111ec57600080fd5b600260038111156111f957fe5b60116000888152602001908152602001600020600e0160009054906101000a900460ff16600381111561122857fe5b14151561123457600080fd5b610384610e1060116000898152602001908152602001600020600901540260116000898152602001908152602001600020600801540101421015151561127957600080fd5b6011600087815260200190815260200160002060000160009054906101000a900473ffffffffffffffffffffffffffffffffffffffff1673ffffffffffffffffffffffffffffffffffffffff166011600088815260200190815260200160002060070160009054906101000a900473ffffffffffffffffffffffffffffffffffffffff1673ffffffffffffffffffffffffffffffffffffffff1614156113ff5782601160008881526020019081526020016000206006018190555060006011600088815260200190815260200160002060070160006101000a81548173ffffffffffffffffffffffffffffffffffffffff021916908373ffffffffffffffffffffffffffffffffffffffff1602179055506000601160008881526020019081526020016000206008018190555060006011600088815260200190815260200160002060090181905550600060116000888152602001908152602001600020600e0160006101000a81548160ff021916908360038111156113f557fe5b0217905550611780565b6011600087815260200190815260200160002060000160009054906101000a900473ffffffffffffffffffffffffffffffffffffffff169350601160008781526020019081526020016000206006015492506011600087815260200190815260200160002060070160009054906101000a900473ffffffffffffffffffffffffffffffffffffffff1691508373ffffffffffffffffffffffffffffffffffffffff166108fc849081150290604051600060405180830381858888f193505050501580156114d0573d6000803e3d6000fd5b50816011600088815260200190815260200160002060000160006101000a81548173ffffffffffffffffffffffffffffffffffffffff021916908373ffffffffffffffffffffffffffffffffffffffff1602179055507f31bc52c97b0c9df927d5bb961bc48c4257ac95b554b7cbc12b1a68919fdef5d44285848660405180806020018681526020018573ffffffffffffffffffffffffffffffffffffffff1673ffffffffffffffffffffffffffffffffffffffff1681526020018473ffffffffffffffffffffffffffffffffffffffff1673ffffffffffffffffffffffffffffffffffffffff168152602001838152602001828103825260078152602001807f61756374696f6e000000000000000000000000000000000000000000000000008152506020019550505050505060405180910390a16101f4851115151561161757600080fd5b84601260003373ffffffffffffffffffffffffffffffffffffffff1673ffffffffffffffffffffffffffffffffffffffff168152602001908152602001600020600082825401925050819055506001601360003373ffffffffffffffffffffffffffffffffffffffff1673ffffffffffffffffffffffffffffffffffffffff16815260200190815260200160002060008282540192505081905550601360003373ffffffffffffffffffffffffffffffffffffffff1673ffffffffffffffffffffffffffffffffffffffff16815260200190815260200160002054601260003373ffffffffffffffffffffffffffffffffffffffff1673ffffffffffffffffffffffffffffffffffffffff1681526020019081526020016000205481151561173b57fe5b04601460003373ffffffffffffffffffffffffffffffffffffffff1673ffffffffffffffffffffffffffffffffffffffff168152602001908152602001600020819055505b505050505050565b60006011600083815260200190815260200160002061016060405190810160405290816000820160009054906101000a900473ffffffffffffffffffffffffffffffffffffffff1673ffffffffffffffffffffffffffffffffffffffff1673ffffffffffffffffffffffffffffffffffffffff1681526020016001820180548060200260200160405190810160405280929190818152602001828054801561188557602002820191906000526020600020905b8160009054906101000a900473ffffffffffffffffffffffffffffffffffffffff1673ffffffffffffffffffffffffffffffffffffffff168152602001906001019080831161183b575b505050505081526020016002820160009054906101000a900473ffffffffffffffffffffffffffffffffffffffff1673ffffffffffffffffffffffffffffffffffffffff1673ffffffffffffffffffffffffffffffffffffffff1681526020016003820160009054906101000a900473ffffffffffffffffffffffffffffffffffffffff1673ffffffffffffffffffffffffffffffffffffffff1673ffffffffffffffffffffffffffffffffffffffff1681526020016004820154815260200160058201548152602001600682015481526020016007820160009054906101000a900473ffffffffffffffffffffffffffffffffffffffff1673ffffffffffffffffffffffffffffffffffffffff1673ffffffffffffffffffffffffffffffffffffffff1681526020016008820154815260200160098201548152602001600e820160009054906101000a900460ff1660038111156119e057fe5b60038111156119eb57fe5b81525050806000015173ffffffffffffffffffffffffffffffffffffffff163373ffffffffffffffffffffffffffffffffffffffff1614151515611a2e57600080fd5b610e106011600085815260200190815260200160002060090154026011600085815260200190815260200160002060080154014211151515611a6f57600080fd5b60026003811115611a7c57fe5b60116000858152602001908152602001600020600e0160009054906101000a900460ff166003811115611aab57fe5b141515611ab757600080fd5b66038d7ea4c6800060116000858152602001908152602001600020600601540234111515611ae457600080fd5b8173ffffffffffffffffffffffffffffffffffffffff166108fc60116000868152602001908152602001600020600601549081150290604051600060405180830381858888f19350505050158015611b40573d6000803e3d6000fd5b506011600084815260200190815260200160002060070160009054906101000a900473ffffffffffffffffffffffffffffffffffffffff169150336011600085815260200190815260200160002060070160006101000a81548173ffffffffffffffffffffffffffffffffffffffff021916908373ffffffffffffffffffffffffffffffffffffffff16021790555066038d7ea4c6800034811515611be157fe5b046011600085815260200190815260200160002060060181905550505050565b600081601081101515611c1057fe5b016000915054906101000a900473ffffffffffffffffffffffffffffffffffffffff1681565b611c3e61370d565b6000601080602002604051908101604052809291908260108015611cad576020028201915b8160009054906101000a900473ffffffffffffffffffffffffffffffffffffffff1673ffffffffffffffffffffffffffffffffffffffff1681526020019060010190808311611c63575b5050505050905090565b6011600084815260200190815260200160002061016060405190810160405290816000820160009054906101000a900473ffffffffffffffffffffffffffffffffffffffff1673ffffffffffffffffffffffffffffffffffffffff1673ffffffffffffffffffffffffffffffffffffffff16815260200160018201805480602002602001604051908101604052809291908181526020018280548015611db257602002820191906000526020600020905b8160009054906101000a900473ffffffffffffffffffffffffffffffffffffffff1673ffffffffffffffffffffffffffffffffffffffff1681526020019060010190808311611d68575b505050505081526020016002820160009054906101000a900473ffffffffffffffffffffffffffffffffffffffff1673ffffffffffffffffffffffffffffffffffffffff1673ffffffffffffffffffffffffffffffffffffffff1681526020016003820160009054906101000a900473ffffffffffffffffffffffffffffffffffffffff1673ffffffffffffffffffffffffffffffffffffffff1673ffffffffffffffffffffffffffffffffffffffff1681526020016004820154815260200160058201548152602001600682015481526020016007820160009054906101000a900473ffffffffffffffffffffffffffffffffffffffff1673ffffffffffffffffffffffffffffffffffffffff1673ffffffffffffffffffffffffffffffffffffffff1681526020016008820154815260200160098201548152602001600e820160009054906101000a900460ff166003811115611f0d57fe5b6003811115611f1857fe5b81525050806000015173ffffffffffffffffffffffffffffffffffffffff163373ffffffffffffffffffffffffffffffffffffffff16141515611f5a57600080fd5b3073ffffffffffffffffffffffffffffffffffffffff168273ffffffffffffffffffffffffffffffffffffffff1614158015611ff857506011600085815260200190815260200160002060000160009054906101000a900473ffffffffffffffffffffffffffffffffffffffff1673ffffffffffffffffffffffffffffffffffffffff168273ffffffffffffffffffffffffffffffffffffffff1614155b151561200357600080fd5b6000600381111561201057fe5b60116000868152602001908152602001600020600e0160009054906101000a900460ff16600381111561203f57fe5b14151561204b57600080fd5b600360116000868152602001908152602001600020600e0160006101000a81548160ff0219169083600381111561207e57fe5b0217905550816011600086815260200190815260200160002060030160006101000a81548173ffffffffffffffffffffffffffffffffffffffff021916908373ffffffffffffffffffffffffffffffffffffffff16021790555082601160008681526020019081526020016000206005018190555050505050565b6000806011600086815260200190815260200160002061016060405190810160405290816000820160009054906101000a900473ffffffffffffffffffffffffffffffffffffffff1673ffffffffffffffffffffffffffffffffffffffff1673ffffffffffffffffffffffffffffffffffffffff168152602001600182018054806020026020016040519081016040528092919081815260200182805480156121f757602002820191906000526020600020905b8160009054906101000a900473ffffffffffffffffffffffffffffffffffffffff1673ffffffffffffffffffffffffffffffffffffffff16815260200190600101908083116121ad575b505050505081526020016002820160009054906101000a900473ffffffffffffffffffffffffffffffffffffffff1673ffffffffffffffffffffffffffffffffffffffff1673ffffffffffffffffffffffffffffffffffffffff1681526020016003820160009054906101000a900473ffffffffffffffffffffffffffffffffffffffff1673ffffffffffffffffffffffffffffffffffffffff1673ffffffffffffffffffffffffffffffffffffffff1681526020016004820154815260200160058201548152602001600682015481526020016007820160009054906101000a900473ffffffffffffffffffffffffffffffffffffffff1673ffffffffffffffffffffffffffffffffffffffff1673ffffffffffffffffffffffffffffffffffffffff1681526020016008820154815260200160098201548152602001600e820160009054906101000a900460ff16600381111561235257fe5b600381111561235d57fe5b81525050806000015173ffffffffffffffffffffffffffffffffffffffff163373ffffffffffffffffffffffffffffffffffffffff1614151561239f57600080fd5b6101f484111515156123b057600080fd5b60116000878152602001908152602001600020600a0160008673ffffffffffffffffffffffffffffffffffffffff1673ffffffffffffffffffffffffffffffffffffffff16815260200190815260200160002054925060116000878152602001908152602001600020600b0160008673ffffffffffffffffffffffffffffffffffffffff1673ffffffffffffffffffffffffffffffffffffffff1681526020019081526020016000205491506201518082028301421015151561247257600080fd5b6011600087815260200190815260200160002060010160116000888152602001908152602001600020600d0160008773ffffffffffffffffffffffffffffffffffffffff1673ffffffffffffffffffffffffffffffffffffffff168152602001908152602001600020548154811015156124e857fe5b9060005260206000200160006101000a81549073ffffffffffffffffffffffffffffffffffffffff021916905583601260003373ffffffffffffffffffffffffffffffffffffffff1673ffffffffffffffffffffffffffffffffffffffff168152602001908152602001600020600082825401925050819055506001601360003373ffffffffffffffffffffffffffffffffffffffff1673ffffffffffffffffffffffffffffffffffffffff16815260200190815260200160002060008282540192505081905550601360003373ffffffffffffffffffffffffffffffffffffffff1673ffffffffffffffffffffffffffffffffffffffff16815260200190815260200160002054601260003373ffffffffffffffffffffffffffffffffffffffff1673ffffffffffffffffffffffffffffffffffffffff1681526020019081526020016000205481151561263957fe5b04601460003373ffffffffffffffffffffffffffffffffffffffff1673ffffffffffffffffffffffffffffffffffffffff16815260200190815260200160002081905550505050505050565b60008060006011600088815260200190815260200160002061016060405190810160405290816000820160009054906101000a900473ffffffffffffffffffffffffffffffffffffffff1673ffffffffffffffffffffffffffffffffffffffff1673ffffffffffffffffffffffffffffffffffffffff1681526020016001820180548060200260200160405190810160405280929190818152602001828054801561278557602002820191906000526020600020905b8160009054906101000a900473ffffffffffffffffffffffffffffffffffffffff1673ffffffffffffffffffffffffffffffffffffffff168152602001906001019080831161273b575b505050505081526020016002820160009054906101000a900473ffffffffffffffffffffffffffffffffffffffff1673ffffffffffffffffffffffffffffffffffffffff1673ffffffffffffffffffffffffffffffffffffffff1681526020016003820160009054906101000a900473ffffffffffffffffffffffffffffffffffffffff1673ffffffffffffffffffffffffffffffffffffffff1673ffffffffffffffffffffffffffffffffffffffff1681526020016004820154815260200160058201548152602001600682015481526020016007820160009054906101000a900473ffffffffffffffffffffffffffffffffffffffff1673ffffffffffffffffffffffffffffffffffffffff1673ffffffffffffffffffffffffffffffffffffffff1681526020016008820154815260200160098201548152602001600e820160009054906101000a900460ff1660038111156128e057fe5b60038111156128eb57fe5b81525050806000015173ffffffffffffffffffffffffffffffffffffffff163373ffffffffffffffffffffffffffffffffffffffff161415151561292e57600080fd5b60038081111561293a57fe5b601160008a8152602001908152602001600020600e0160009054906101000a900460ff16600381111561296957fe5b14151561297557600080fd5b6011600089815260200190815260200160002060030160009054906101000a900473ffffffffffffffffffffffffffffffffffffffff1673ffffffffffffffffffffffffffffffffffffffff163373ffffffffffffffffffffffffffffffffffffffff161415156129e557600080fd5b66038d7ea4c68000601160008a8152602001908152602001600020600501540234141515612a1257600080fd5b60116000898152602001908152602001600020600501549250601160008981526020019081526020016000206001013390806001815401808255809150509060018203906000526020600020016000909192909190916101000a81548173ffffffffffffffffffffffffffffffffffffffff021916908373ffffffffffffffffffffffffffffffffffffffff160217905550506001601160008a81526020019081526020016000206001018054905003915081601160008a8152602001908152602001600020600d0160003373ffffffffffffffffffffffffffffffffffffffff1673ffffffffffffffffffffffffffffffffffffffff168152602001908152602001600020819055506011600089815260200190815260200160002060000160009054906101000a900473ffffffffffffffffffffffffffffffffffffffff1673ffffffffffffffffffffffffffffffffffffffff166108fc601160008b8152602001908152602001600020600501549081150290604051600060405180830381858888f19350505050158015612bae573d6000803e3d6000fd5b506201518087024201601160008a8152602001908152602001600020600a0160003373ffffffffffffffffffffffffffffffffffffffff1673ffffffffffffffffffffffffffffffffffffffff1681526020019081526020016000208190555085601160008a8152602001908152602001600020600b0160003373ffffffffffffffffffffffffffffffffffffffff1673ffffffffffffffffffffffffffffffffffffffff1681526020019081526020016000208190555084601160008a8152602001908152602001600020600c0160003373ffffffffffffffffffffffffffffffffffffffff1673ffffffffffffffffffffffffffffffffffffffff1681526020019081526020016000209080519060200190612ccd929190613731565b507f31bc52c97b0c9df927d5bb961bc48c4257ac95b554b7cbc12b1a68919fdef5d442601160008b815260200190815260200160002060000160009054906101000a900473ffffffffffffffffffffffffffffffffffffffff16338660405180806020018681526020018573ffffffffffffffffffffffffffffffffffffffff1673ffffffffffffffffffffffffffffffffffffffff1681526020018473ffffffffffffffffffffffffffffffffffffffff1673ffffffffffffffffffffffffffffffffffffffff168152602001838152602001828103825260048152602001807f72656e74000000000000000000000000000000000000000000000000000000008152506020019550505050505060405180910390a1819350505050949350505050565b60008060006011600085815260200190815260200160002061016060405190810160405290816000820160009054906101000a900473ffffffffffffffffffffffffffffffffffffffff1673ffffffffffffffffffffffffffffffffffffffff1673ffffffffffffffffffffffffffffffffffffffff16815260200160018201805480602002602001604051908101604052809291908181526020018280548015612ef257602002820191906000526020600020905b8160009054906101000a900473ffffffffffffffffffffffffffffffffffffffff1673ffffffffffffffffffffffffffffffffffffffff1681526020019060010190808311612ea8575b505050505081526020016002820160009054906101000a900473ffffffffffffffffffffffffffffffffffffffff1673ffffffffffffffffffffffffffffffffffffffff1673ffffffffffffffffffffffffffffffffffffffff1681526020016003820160009054906101000a900473ffffffffffffffffffffffffffffffffffffffff1673ffffffffffffffffffffffffffffffffffffffff1673ffffffffffffffffffffffffffffffffffffffff1681526020016004820154815260200160058201548152602001600682015481526020016007820160009054906101000a900473ffffffffffffffffffffffffffffffffffffffff1673ffffffffffffffffffffffffffffffffffffffff1673ffffffffffffffffffffffffffffffffffffffff1681526020016008820154815260200160098201548152602001600e820160009054906101000a900460ff16600381111561304d57fe5b600381111561305857fe5b81525050806000015173ffffffffffffffffffffffffffffffffffffffff163373ffffffffffffffffffffffffffffffffffffffff161415151561309b57600080fd5b600160038111156130a857fe5b60116000878152602001908152602001600020600e0160009054906101000a900460ff1660038111156130d757fe5b1415156130e357600080fd5b6011600086815260200190815260200160002060000160009054906101000a900473ffffffffffffffffffffffffffffffffffffffff1673ffffffffffffffffffffffffffffffffffffffff163373ffffffffffffffffffffffffffffffffffffffff161415151561315457600080fd5b6011600086815260200190815260200160002060020160009054906101000a900473ffffffffffffffffffffffffffffffffffffffff1673ffffffffffffffffffffffffffffffffffffffff163373ffffffffffffffffffffffffffffffffffffffff1614806132265750600073ffffffffffffffffffffffffffffffffffffffff166011600087815260200190815260200160002060020160009054906101000a900473ffffffffffffffffffffffffffffffffffffffff1673ffffffffffffffffffffffffffffffffffffffff16145b151561323157600080fd5b66038d7ea4c680006011600087815260200190815260200160002060040154023414151561325e57600080fd5b6011600086815260200190815260200160002060000160009054906101000a900473ffffffffffffffffffffffffffffffffffffffff169350339250601160008681526020019081526020016000206004015491506132bc856135f2565b8373ffffffffffffffffffffffffffffffffffffffff166108fc839081150290604051600060405180830381858888f19350505050158015613302573d6000803e3d6000fd5b50826011600087815260200190815260200160002060000160006101000a81548173ffffffffffffffffffffffffffffffffffffffff021916908373ffffffffffffffffffffffffffffffffffffffff1602179055507f31bc52c97b0c9df927d5bb961bc48c4257ac95b554b7cbc12b1a68919fdef5d44285858560405180806020018681526020018573ffffffffffffffffffffffffffffffffffffffff1673ffffffffffffffffffffffffffffffffffffffff1681526020018473ffffffffffffffffffffffffffffffffffffffff1673ffffffffffffffffffffffffffffffffffffffff168152602001838152602001828103825260038152602001807f62757900000000000000000000000000000000000000000000000000000000008152506020019550505050505060405180910390a16101f4601260003373ffffffffffffffffffffffffffffffffffffffff1673ffffffffffffffffffffffffffffffffffffffff168152602001908152602001600020600082825401925050819055506001601360003373ffffffffffffffffffffffffffffffffffffffff1673ffffffffffffffffffffffffffffffffffffffff16815260200190815260200160002060008282540192505081905550601360003373ffffffffffffffffffffffffffffffffffffffff1673ffffffffffffffffffffffffffffffffffffffff16815260200190815260200160002054601260003373ffffffffffffffffffffffffffffffffffffffff1673ffffffffffffffffffffffffffffffffffffffff1681526020019081526020016000205481151561355e57fe5b04601460003373ffffffffffffffffffffffffffffffffffffffff1673ffffffffffffffffffffffffffffffffffffffff168152602001908152602001600020819055505050505050565b6000601460008373ffffffffffffffffffffffffffffffffffffffff1673ffffffffffffffffffffffffffffffffffffffff168152602001908152602001600020549050919050565b600060116000838152602001908152602001600020600e0160006101000a81548160ff0219169083600381111561362557fe5b021790555060006011600083815260200190815260200160002060020160006101000a81548173ffffffffffffffffffffffffffffffffffffffff021916908373ffffffffffffffffffffffffffffffffffffffff16021790555050565b8280548282559060005260206000209081019282156136fc579160200282015b828111156136fb5782518260006101000a81548173ffffffffffffffffffffffffffffffffffffffff021916908373ffffffffffffffffffffffffffffffffffffffff160217905550916020019190600101906136a3565b5b50905061370991906137b1565b5090565b61020060405190810160405280601090602082028038833980820191505090505090565b828054600181600116156101000203166002900490600052602060002090601f016020900481019282601f1061377257805160ff19168380011785556137a0565b828001600101855582156137a0579182015b8281111561379f578251825591602001919060010190613784565b5b5090506137ad91906137f4565b5090565b6137f191905b808211156137ed57600081816101000a81549073ffffffffffffffffffffffffffffffffffffffff0219169055506001016137b7565b5090565b90565b61381691905b808211156138125760008160009055506001016137fa565b5090565b905600a165627a7a723058207dfd508983379f82a54faf12f671caeef5c78e5b052620f85141051e27562deb0029",
  "source": "pragma solidity ^0.4.2;\r\n\r\n//Art class for artwork\r\ncontract DigiArtPlat{\r\n    // function DigiArtPlat() public{\r\n    // }\r\n\r\n    address[16] public user;\r\n\r\n    enum ArtStates { hold, selling, auctioning, renting}\r\n    struct Art{\r\n        address owner;\r\n        address[] users;\r\n        address targetBuyer;\r\n        address targetRenter;\r\n        uint currentPrice;\r\n        uint currentRent;       //rent per day\r\n        uint currentBid;\r\n        address winning;\r\n        uint auctionStart;\r\n        uint auctionDuration; //in hours\r\n        mapping (address=>uint) rentStart;\r\n        mapping (address=>uint) rentDuration; //in days\r\n        mapping (address=>string) destination;\r\n        mapping (address=>uint) userIndex;\r\n        ArtStates state;\r\n    }\r\n    uint artID = 0;\r\n    mapping (uint=>Art) arts;\r\n    mapping (address=>uint) score;\r\n    mapping (address=>uint) ratingCount;\r\n    mapping (address=>uint) rating;\r\n\r\n    event Transfer(string txType, uint time, address from, address to, uint price);\r\n    event Creation(uint time, address artist);\r\n\r\n\r\n    modifier onlyOwner(Art a) {\r\n        require(msg.sender == a.owner);\r\n        _;\r\n    }\r\n\r\n    modifier notOwner(Art a) {\r\n        require(msg.sender != a.owner);\r\n        _;\r\n    }\r\n\r\n    function createArt() public returns(uint){\r\n        arts[artID] = Art({\r\n            owner: msg.sender,\r\n            users: new address[](0),\r\n            targetBuyer: address(0),\r\n            targetRenter: address(0),\r\n            currentPrice: 0,\r\n            currentRent: 0,\r\n            //rent per day\r\n            currentBid: 0,\r\n            winning: address(0),\r\n            auctionStart: 0,\r\n            auctionDuration: 0,\r\n            state: ArtStates.hold\r\n            });\r\n        artID = artID+1;\r\n        return artID - 1;\r\n    }\r\n\r\n    function initiateSale(uint ID, uint _price, address _to) public onlyOwner(arts[ID]) {\r\n        //artist can either set a target buyer or not(open sale)\r\n        require(_to != address(this) && _to != arts[ID].owner);\r\n        require(arts[ID].state == ArtStates.hold);\r\n\r\n        arts[ID].state = ArtStates.selling;\r\n\r\n        arts[ID].targetBuyer = _to;\r\n\r\n        arts[ID].currentPrice = _price;\r\n    }\r\n\r\n    function initialRent(uint ID, uint _rent, address _to) public onlyOwner(arts[ID]){\r\n        require(_to != address(this) && _to != arts[ID].owner);\r\n        require(arts[ID].state == ArtStates.hold);\r\n\r\n        arts[ID].state = ArtStates.renting;\r\n\r\n        arts[ID].targetRenter = _to;\r\n\r\n        arts[ID].currentRent = _rent;\r\n    }\r\n\r\n    function initiateAuction(uint ID, uint _price, uint duration) public onlyOwner(arts[ID]) {\r\n        require(arts[ID].state == ArtStates.hold);\r\n\r\n        arts[ID].state = ArtStates.auctioning;\r\n\r\n        arts[ID].currentBid = _price;\r\n        arts[ID].winning = arts[ID].owner;\r\n        arts[ID].auctionStart = now;\r\n        arts[ID].auctionDuration = duration;\r\n    }\r\n\r\n    function resetSale(uint ID) private {\r\n        arts[ID].state = ArtStates.hold;\r\n        arts[ID].targetBuyer = address(0);\r\n    }\r\n\r\n    function buy(uint ID) public notOwner(arts[ID]) payable {\r\n        require(arts[ID].state == ArtStates.selling);\r\n        require(msg.sender != arts[ID].owner);\r\n        require(msg.sender == arts[ID].targetBuyer || arts[ID].targetBuyer == address(0));\r\n        require(msg.value == arts[ID].currentPrice * 1 finney);\r\n\r\n        // Change ownership\r\n        address prevOwner = arts[ID].owner;\r\n        address newOwner = msg.sender;\r\n        uint salePrice = arts[ID].currentPrice;\r\n\r\n        // Transaction cleanup\r\n        resetSale(ID);\r\n\r\n        prevOwner.transfer(salePrice);\r\n        arts[ID].owner = newOwner;\r\n        emit Transfer(\"buy\", now, prevOwner, newOwner, salePrice);\r\n\r\n        score[msg.sender] +=500;\r\n        ratingCount[msg.sender] +=1;\r\n        rating[msg.sender] = score[msg.sender]/ratingCount[msg.sender];\r\n\r\n    }\r\n\r\n    function rent(uint ID, uint start, uint duration, string destination)public notOwner(arts[ID]) payable returns(uint){\r\n        //to subscribe, need to call this function\r\n        require(arts[ID].state == ArtStates.renting);\r\n        require(msg.sender == arts[ID].targetRenter);\r\n        require(msg.value == arts[ID].currentRent * 1 finney);\r\n\r\n        uint rentPrice = arts[ID].currentRent;\r\n        arts[ID].users.push(msg.sender);\r\n        uint index = arts[ID].users.length-1;\r\n        arts[ID].userIndex[msg.sender] = index;\r\n        arts[ID].owner.transfer(arts[ID].currentRent);\r\n        arts[ID].rentStart[msg.sender] = now + start * 1 days;\r\n        arts[ID].rentDuration[msg.sender] = duration;\r\n        arts[ID].destination[msg.sender] = destination;\r\n        emit Transfer(\"rent\", now, arts[ID].owner, msg.sender, rentPrice);\r\n        return index;\r\n    }\r\n\r\n    function endRent(uint ID, address _renter,uint rate) public onlyOwner(arts[ID]){\r\n        require(rate<=500);\r\n        uint start = arts[ID].rentStart[_renter];\r\n        uint duration = arts[ID].rentDuration[_renter];\r\n        require(now>=(start + duration * 1 days));\r\n        delete arts[ID].users[arts[ID].userIndex[_renter]];\r\n\r\n        score[msg.sender] +=rate;\r\n        ratingCount[msg.sender] +=1;\r\n        rating[msg.sender] = score[msg.sender]/ratingCount[msg.sender];\r\n    }\r\n\r\n    function bid(uint ID) public notOwner(arts[ID]) payable{\r\n        require(now<=arts[ID].auctionStart+arts[ID].auctionDuration * 1 hours);\r\n        require(arts[ID].state == ArtStates.auctioning);\r\n        require(msg.value>arts[ID].currentBid*1 finney);\r\n        prevWinning.transfer(arts[ID].currentBid);\r\n        address prevWinning = arts[ID].winning;\r\n        arts[ID].winning = msg.sender;\r\n        arts[ID].currentBid = msg.value/1000000000000000;\r\n\r\n    }\r\n\r\n    function closeAuction(uint ID, uint rate) public onlyOwner(arts[ID]){\r\n        require(arts[ID].state == ArtStates.auctioning);\r\n        require(now>=arts[ID].auctionStart+arts[ID].auctionDuration * 1 hours+15 minutes); //duration is in hours\r\n        if (arts[ID].winning == arts[ID].owner){\r\n            arts[ID].currentBid = _price;\r\n            arts[ID].winning = address(0);\r\n            arts[ID].auctionStart = 0;\r\n            arts[ID].auctionDuration = 0;\r\n            arts[ID].state = ArtStates.hold;\r\n        }else{\r\n            address prevOwner = arts[ID].owner;\r\n            uint _price = arts[ID].currentBid;\r\n            address winner = arts[ID].winning;\r\n            prevOwner.transfer(_price);\r\n            arts[ID].owner = winner;\r\n            emit Transfer(\"auction\", now, prevOwner, winner, _price);\r\n            require(rate<=500);\r\n            score[msg.sender] += rate;\r\n            ratingCount[msg.sender] += 1;\r\n            rating[msg.sender] = score[msg.sender]/ratingCount[msg.sender];\r\n        }\r\n\r\n    }\r\n\r\n    function checkRating(address user) public returns(uint){\r\n        return rating[user];\r\n    }\r\n\r\n    //function subscribe(uint ID,) public notOwner(arts[ID]){\r\n\r\n    //}\r\n\r\n    function getUser() public view returns (address[16]) {\r\n        return user;\r\n    }\r\n\r\n\r\n}\r\n",
  "sourcePath": "C:\\Users\\Jing Jiang\\Digi-Art-Platform\\truffle-source\\contracts\\DigiArtPlat.sol",
  "compiler": {
    "name": "solc",
    "version": "0.4.23+commit.124ca40d.Emscripten.clang"
  },
  "schemaVersion": "2.0.0",
  "updatedAt": "2018-05-06T22:07:58.286Z"
}