{
  "contractName": "DigiArtPlat",
  "abi": [
    {
      "constant": true,
      "inputs": [
        {
          "name": "",
          "type": "uint256"
        }
      ],
      "name": "userDat",
      "outputs": [
        {
          "name": "",
          "type": "address"
        }
      ],
      "payable": false,
      "stateMutability": "view",
      "type": "function"
    },
    {
      "constant": true,
      "inputs": [
        {
          "name": "",
          "type": "uint256"
        },
        {
          "name": "",
          "type": "uint256"
        }
      ],
      "name": "status1",
      "outputs": [
        {
          "name": "",
          "type": "uint256"
        }
      ],
      "payable": false,
      "stateMutability": "view",
      "type": "function"
    },
    {
      "constant": true,
      "inputs": [
        {
          "name": "",
          "type": "uint256"
        }
      ],
      "name": "prices",
      "outputs": [
        {
          "name": "",
          "type": "uint256"
        }
      ],
      "payable": false,
      "stateMutability": "view",
      "type": "function"
    },
    {
      "constant": true,
      "inputs": [
        {
          "name": "",
          "type": "uint256"
        }
      ],
      "name": "buyerDat",
      "outputs": [
        {
          "name": "",
          "type": "address"
        }
      ],
      "payable": false,
      "stateMutability": "view",
      "type": "function"
    },
    {
      "anonymous": false,
      "inputs": [
        {
          "indexed": false,
          "name": "txType",
          "type": "string"
        },
        {
          "indexed": false,
          "name": "time",
          "type": "uint256"
        },
        {
          "indexed": false,
          "name": "from",
          "type": "address"
        },
        {
          "indexed": false,
          "name": "to",
          "type": "address"
        },
        {
          "indexed": false,
          "name": "price",
          "type": "uint256"
        }
      ],
      "name": "Transfer",
      "type": "event"
    },
    {
      "anonymous": false,
      "inputs": [
        {
          "indexed": false,
          "name": "time",
          "type": "uint256"
        },
        {
          "indexed": false,
          "name": "artist",
          "type": "address"
        }
      ],
      "name": "Creation",
      "type": "event"
    },
    {
      "constant": false,
      "inputs": [
        {
          "name": "Id",
          "type": "uint256"
        },
        {
          "name": "_price",
          "type": "uint256"
        }
      ],
      "name": "createArt",
      "outputs": [
        {
          "name": "",
          "type": "uint256"
        }
      ],
      "payable": false,
      "stateMutability": "nonpayable",
      "type": "function"
    },
    {
      "constant": false,
      "inputs": [
        {
          "name": "ID",
          "type": "uint256"
        },
        {
          "name": "_price",
          "type": "uint256"
        }
      ],
      "name": "initiateSale",
      "outputs": [],
      "payable": false,
      "stateMutability": "nonpayable",
      "type": "function"
    },
    {
      "constant": false,
      "inputs": [
        {
          "name": "ID",
          "type": "uint256"
        },
        {
          "name": "_rent",
          "type": "uint256"
        }
      ],
      "name": "initialRent",
      "outputs": [],
      "payable": false,
      "stateMutability": "nonpayable",
      "type": "function"
    },
    {
      "constant": false,
      "inputs": [
        {
          "name": "ID",
          "type": "uint256"
        },
        {
          "name": "_price",
          "type": "uint256"
        },
        {
          "name": "duration",
          "type": "uint256"
        }
      ],
      "name": "initiateAuction",
      "outputs": [],
      "payable": false,
      "stateMutability": "nonpayable",
      "type": "function"
    },
    {
      "constant": false,
      "inputs": [
        {
          "name": "ID",
          "type": "uint256"
        }
      ],
      "name": "buy",
      "outputs": [
        {
          "name": "",
          "type": "uint256"
        }
      ],
      "payable": false,
      "stateMutability": "nonpayable",
      "type": "function"
    },
    {
      "constant": false,
      "inputs": [
        {
          "name": "ID",
          "type": "uint256"
        },
        {
          "name": "start",
          "type": "uint256"
        },
        {
          "name": "destination",
          "type": "string"
        }
      ],
      "name": "rent",
      "outputs": [
        {
          "name": "",
          "type": "uint256"
        }
      ],
      "payable": false,
      "stateMutability": "nonpayable",
      "type": "function"
    },
    {
      "constant": false,
      "inputs": [
        {
          "name": "ID",
          "type": "uint256"
        },
        {
          "name": "_renter",
          "type": "address"
        },
        {
          "name": "rate",
          "type": "uint256"
        }
      ],
      "name": "endRent",
      "outputs": [],
      "payable": false,
      "stateMutability": "nonpayable",
      "type": "function"
    },
    {
      "constant": false,
      "inputs": [
        {
          "name": "ID",
          "type": "uint256"
        }
      ],
      "name": "bid",
      "outputs": [],
      "payable": true,
      "stateMutability": "payable",
      "type": "function"
    },
    {
      "constant": false,
      "inputs": [
        {
          "name": "ID",
          "type": "uint256"
        },
        {
          "name": "rate",
          "type": "uint256"
        }
      ],
      "name": "closeAuction",
      "outputs": [],
      "payable": false,
      "stateMutability": "nonpayable",
      "type": "function"
    },
    {
      "constant": false,
      "inputs": [
        {
          "name": "user",
          "type": "address"
        }
      ],
      "name": "checkRating",
      "outputs": [
        {
          "name": "",
          "type": "uint256"
        }
      ],
      "payable": false,
      "stateMutability": "nonpayable",
      "type": "function"
    },
    {
      "constant": true,
      "inputs": [],
      "name": "getUser",
      "outputs": [
        {
          "name": "",
          "type": "address[9]"
        }
      ],
      "payable": false,
      "stateMutability": "view",
      "type": "function"
    },
    {
      "constant": true,
      "inputs": [],
      "name": "getBuyer",
      "outputs": [
        {
          "name": "",
          "type": "address[9]"
        }
      ],
      "payable": false,
      "stateMutability": "view",
      "type": "function"
    },
    {
      "constant": true,
      "inputs": [],
      "name": "getStatus",
      "outputs": [
        {
          "name": "",
          "type": "uint256[9][3]"
        }
      ],
      "payable": false,
      "stateMutability": "view",
      "type": "function"
    },
    {
      "constant": true,
      "inputs": [],
      "name": "getPrice",
      "outputs": [
        {
          "name": "",
          "type": "uint256[9]"
        }
      ],
      "payable": false,
      "stateMutability": "view",
      "type": "function"
    }
  ],
  "bytecode": "0x6080604052600060365534801561001557600080fd5b50612c95806100256000396000f3006080604052600436106100fc576000357c0100000000000000000000000000000000000000000000000000000000900463ffffffff168063072250061461010157806323456ce314610142578063274b13c41461018d5780632bb98528146101fa5780633983a26014610245578063454a2ab31461027c5780634e69d5601461029c578063603daf9a14610312578063832880e7146103655780638c123f44146103b857806398d5fdca1461040f578063b8907a5314610462578063bc31c1c1146104f3578063c42f0a8814610534578063cada6c311461056b578063d96a094a146105d8578063e1b1a42014610619578063f7943eca14610650575b600080fd5b34801561010d57600080fd5b506101406004803603810190808035906020019092919080359060200190929190803590602001909291905050506106a7565b005b34801561014e57600080fd5b506101776004803603810190808035906020019092919080359060200190929190505050610aac565b6040518082815260200191505060405180910390f35b34801561019957600080fd5b506101b860048036038101908080359060200190929190505050610e34565b604051808273ffffffffffffffffffffffffffffffffffffffff1673ffffffffffffffffffffffffffffffffffffffff16815260200191505060405180910390f35b34801561020657600080fd5b5061022f6004803603810190808035906020019092919080359060200190929190505050610e69565b6040518082815260200191505060405180910390f35b34801561025157600080fd5b5061027a6004803603810190808035906020019092919080359060200190929190505050610e95565b005b61029a60048036038101908080359060200190929190505050611736565b005b3480156102a857600080fd5b506102b1611c1e565b604051808260036000925b818410156103025782846020020151600960200280838360005b838110156102f15780820151818401526020810190506102d6565b5050505090500192600101926102bc565b9250505091505060405180910390f35b34801561031e57600080fd5b50610327611ca1565b6040518082600960200280838360005b83811015610352578082015181840152602081019050610337565b5050505090500191505060405180910390f35b34801561037157600080fd5b5061037a611d21565b6040518082600960200280838360005b838110156103a557808201518184015260208101905061038a565b5050505090500191505060405180910390f35b3480156103c457600080fd5b5061040d60048036038101908080359060200190929190803573ffffffffffffffffffffffffffffffffffffffff16906020019092919080359060200190929190505050611da2565b005b34801561041b57600080fd5b5061042461232e565b6040518082600960200280838360005b8381101561044f578082015181840152602081019050610434565b5050505090500191505060405180910390f35b34801561046e57600080fd5b506104dd6004803603810190808035906020019092919080359060200190929190803590602001908201803590602001908080601f0160208091040260200160405190810160405280939291908181526020018383808284378201915050505050509192919290505050612379565b6040518082815260200191505060405180910390f35b3480156104ff57600080fd5b5061051e600480360381019080803590602001909291905050506123f0565b6040518082815260200191505060405180910390f35b34801561054057600080fd5b50610569600480360381019080803590602001909291908035906020019092919050505061240a565b005b34801561057757600080fd5b506105966004803603810190808035906020019092919050505061270c565b604051808273ffffffffffffffffffffffffffffffffffffffff1673ffffffffffffffffffffffffffffffffffffffff16815260200191505060405180910390f35b3480156105e457600080fd5b5061060360048036038101908080359060200190929190505050612741565b6040518082815260200191505060405180910390f35b34801561062557600080fd5b5061064e60048036038101908080359060200190929190803590602001909291905050506127b6565b005b34801561065c57600080fd5b50610691600480360381019080803573ffffffffffffffffffffffffffffffffffffffff169060200190929190505050612ab8565b6040518082815260200191505060405180910390f35b6037600084815260200190815260200160002061016060405190810160405290816000820160009054906101000a900473ffffffffffffffffffffffffffffffffffffffff1673ffffffffffffffffffffffffffffffffffffffff1673ffffffffffffffffffffffffffffffffffffffff168152602001600182018054806020026020016040519081016040528092919081815260200182805480156107a257602002820191906000526020600020905b8160009054906101000a900473ffffffffffffffffffffffffffffffffffffffff1673ffffffffffffffffffffffffffffffffffffffff1681526020019060010190808311610758575b505050505081526020016002820160009054906101000a900473ffffffffffffffffffffffffffffffffffffffff1673ffffffffffffffffffffffffffffffffffffffff1673ffffffffffffffffffffffffffffffffffffffff1681526020016003820160009054906101000a900473ffffffffffffffffffffffffffffffffffffffff1673ffffffffffffffffffffffffffffffffffffffff1673ffffffffffffffffffffffffffffffffffffffff1681526020016004820154815260200160058201548152602001600682015481526020016007820160009054906101000a900473ffffffffffffffffffffffffffffffffffffffff1673ffffffffffffffffffffffffffffffffffffffff1673ffffffffffffffffffffffffffffffffffffffff1681526020016008820154815260200160098201548152602001600e820160009054906101000a900460ff1660038111156108fd57fe5b600381111561090857fe5b81525050806000015173ffffffffffffffffffffffffffffffffffffffff163373ffffffffffffffffffffffffffffffffffffffff1614151561094a57600080fd5b6000600381111561095757fe5b60376000868152602001908152602001600020600e0160009054906101000a900460ff16600381111561098657fe5b14151561099257600080fd5b600260376000868152602001908152602001600020600e0160006101000a81548160ff021916908360038111156109c557fe5b02179055508260376000868152602001908152602001600020600601819055506037600085815260200190815260200160002060000160009054906101000a900473ffffffffffffffffffffffffffffffffffffffff166037600086815260200190815260200160002060070160006101000a81548173ffffffffffffffffffffffffffffffffffffffff021916908373ffffffffffffffffffffffffffffffffffffffff16021790555042603760008681526020019081526020016000206008018190555081603760008681526020019081526020016000206009018190555050505050565b6000808310158015610abf575060098311155b1515610aca57600080fd5b81601284600981101515610ada57fe5b018190555033600084600981101515610aef57fe5b0160006101000a81548173ffffffffffffffffffffffffffffffffffffffff021916908373ffffffffffffffffffffffffffffffffffffffff160217905550610160604051908101604052803373ffffffffffffffffffffffffffffffffffffffff1681526020016000604051908082528060200260200182016040528015610b875781602001602082028038833980820191505090505b508152602001600073ffffffffffffffffffffffffffffffffffffffff168152602001600073ffffffffffffffffffffffffffffffffffffffff168152602001600081526020016000815260200160008152602001600073ffffffffffffffffffffffffffffffffffffffff168152602001600081526020016000815260200160006003811115610c1457fe5b81525060376000603654815260200190815260200160002060008201518160000160006101000a81548173ffffffffffffffffffffffffffffffffffffffff021916908373ffffffffffffffffffffffffffffffffffffffff1602179055506020820151816001019080519060200190610c8f929190612b01565b5060408201518160020160006101000a81548173ffffffffffffffffffffffffffffffffffffffff021916908373ffffffffffffffffffffffffffffffffffffffff16021790555060608201518160030160006101000a81548173ffffffffffffffffffffffffffffffffffffffff021916908373ffffffffffffffffffffffffffffffffffffffff1602179055506080820151816004015560a0820151816005015560c0820151816006015560e08201518160070160006101000a81548173ffffffffffffffffffffffffffffffffffffffff021916908373ffffffffffffffffffffffffffffffffffffffff1602179055506101008201518160080155610120820151816009015561014082015181600e0160006101000a81548160ff02191690836003811115610dbe57fe5b021790555090505033603b6000603654815260200190815260200160002060006101000a81548173ffffffffffffffffffffffffffffffffffffffff021916908373ffffffffffffffffffffffffffffffffffffffff160217905550600160365401603681905550600160365403905092915050565b600081600981101515610e4357fe5b016000915054906101000a900473ffffffffffffffffffffffffffffffffffffffff1681565b601b82600381101515610e7857fe5b6009020181600981101515610e8957fe5b01600091509150505481565b60008060006037600086815260200190815260200160002061016060405190810160405290816000820160009054906101000a900473ffffffffffffffffffffffffffffffffffffffff1673ffffffffffffffffffffffffffffffffffffffff1673ffffffffffffffffffffffffffffffffffffffff16815260200160018201805480602002602001604051908101604052809291908181526020018280548015610f9557602002820191906000526020600020905b8160009054906101000a900473ffffffffffffffffffffffffffffffffffffffff1673ffffffffffffffffffffffffffffffffffffffff1681526020019060010190808311610f4b575b505050505081526020016002820160009054906101000a900473ffffffffffffffffffffffffffffffffffffffff1673ffffffffffffffffffffffffffffffffffffffff1673ffffffffffffffffffffffffffffffffffffffff1681526020016003820160009054906101000a900473ffffffffffffffffffffffffffffffffffffffff1673ffffffffffffffffffffffffffffffffffffffff1673ffffffffffffffffffffffffffffffffffffffff1681526020016004820154815260200160058201548152602001600682015481526020016007820160009054906101000a900473ffffffffffffffffffffffffffffffffffffffff1673ffffffffffffffffffffffffffffffffffffffff1673ffffffffffffffffffffffffffffffffffffffff1681526020016008820154815260200160098201548152602001600e820160009054906101000a900460ff1660038111156110f057fe5b60038111156110fb57fe5b81525050806000015173ffffffffffffffffffffffffffffffffffffffff163373ffffffffffffffffffffffffffffffffffffffff1614151561113d57600080fd5b6002600381111561114a57fe5b60376000888152602001908152602001600020600e0160009054906101000a900460ff16600381111561117957fe5b14151561118557600080fd5b610384610e106037600089815260200190815260200160002060090154026037600089815260200190815260200160002060080154010142101515156111ca57600080fd5b6037600087815260200190815260200160002060000160009054906101000a900473ffffffffffffffffffffffffffffffffffffffff1673ffffffffffffffffffffffffffffffffffffffff166037600088815260200190815260200160002060070160009054906101000a900473ffffffffffffffffffffffffffffffffffffffff1673ffffffffffffffffffffffffffffffffffffffff1614156113505782603760008881526020019081526020016000206006018190555060006037600088815260200190815260200160002060070160006101000a81548173ffffffffffffffffffffffffffffffffffffffff021916908373ffffffffffffffffffffffffffffffffffffffff1602179055506000603760008881526020019081526020016000206008018190555060006037600088815260200190815260200160002060090181905550600060376000888152602001908152602001600020600e0160006101000a81548160ff0219169083600381111561134657fe5b021790555061172e565b6037600087815260200190815260200160002060000160009054906101000a900473ffffffffffffffffffffffffffffffffffffffff169350603760008781526020019081526020016000206006015492506037600087815260200190815260200160002060070160009054906101000a900473ffffffffffffffffffffffffffffffffffffffff1691508373ffffffffffffffffffffffffffffffffffffffff166108fc66038d7ea4c6800085029081150290604051600060405180830381858888f1935050505015801561142a573d6000803e3d6000fd5b50816037600088815260200190815260200160002060000160006101000a81548173ffffffffffffffffffffffffffffffffffffffff021916908373ffffffffffffffffffffffffffffffffffffffff16021790555081603b6000603654815260200190815260200160002060006101000a81548173ffffffffffffffffffffffffffffffffffffffff021916908373ffffffffffffffffffffffffffffffffffffffff1602179055507f31bc52c97b0c9df927d5bb961bc48c4257ac95b554b7cbc12b1a68919fdef5d44285848660405180806020018681526020018573ffffffffffffffffffffffffffffffffffffffff1673ffffffffffffffffffffffffffffffffffffffff1681526020018473ffffffffffffffffffffffffffffffffffffffff1673ffffffffffffffffffffffffffffffffffffffff168152602001838152602001828103825260078152602001807f61756374696f6e000000000000000000000000000000000000000000000000008152506020019550505050505060405180910390a16101f485111515156115c557600080fd5b84603860003373ffffffffffffffffffffffffffffffffffffffff1673ffffffffffffffffffffffffffffffffffffffff168152602001908152602001600020600082825401925050819055506001603960003373ffffffffffffffffffffffffffffffffffffffff1673ffffffffffffffffffffffffffffffffffffffff16815260200190815260200160002060008282540192505081905550603960003373ffffffffffffffffffffffffffffffffffffffff1673ffffffffffffffffffffffffffffffffffffffff16815260200190815260200160002054603860003373ffffffffffffffffffffffffffffffffffffffff1673ffffffffffffffffffffffffffffffffffffffff168152602001908152602001600020548115156116e957fe5b04603a60003373ffffffffffffffffffffffffffffffffffffffff1673ffffffffffffffffffffffffffffffffffffffff168152602001908152602001600020819055505b505050505050565b6037600082815260200190815260200160002061016060405190810160405290816000820160009054906101000a900473ffffffffffffffffffffffffffffffffffffffff1673ffffffffffffffffffffffffffffffffffffffff1673ffffffffffffffffffffffffffffffffffffffff1681526020016001820180548060200260200160405190810160405280929190818152602001828054801561183157602002820191906000526020600020905b8160009054906101000a900473ffffffffffffffffffffffffffffffffffffffff1673ffffffffffffffffffffffffffffffffffffffff16815260200190600101908083116117e7575b505050505081526020016002820160009054906101000a900473ffffffffffffffffffffffffffffffffffffffff1673ffffffffffffffffffffffffffffffffffffffff1673ffffffffffffffffffffffffffffffffffffffff1681526020016003820160009054906101000a900473ffffffffffffffffffffffffffffffffffffffff1673ffffffffffffffffffffffffffffffffffffffff1673ffffffffffffffffffffffffffffffffffffffff1681526020016004820154815260200160058201548152602001600682015481526020016007820160009054906101000a900473ffffffffffffffffffffffffffffffffffffffff1673ffffffffffffffffffffffffffffffffffffffff1673ffffffffffffffffffffffffffffffffffffffff1681526020016008820154815260200160098201548152602001600e820160009054906101000a900460ff16600381111561198c57fe5b600381111561199757fe5b81525050806000015173ffffffffffffffffffffffffffffffffffffffff163373ffffffffffffffffffffffffffffffffffffffff16141515156119da57600080fd5b600082101580156119ec575060098211155b15156119f757600080fd5b33600983600981101515611a0757fe5b0160006101000a81548173ffffffffffffffffffffffffffffffffffffffff021916908373ffffffffffffffffffffffffffffffffffffffff160217905550610e106037600084815260200190815260200160002060090154026037600084815260200190815260200160002060080154014211151515611a8757600080fd5b60026003811115611a9457fe5b60376000848152602001908152602001600020600e0160009054906101000a900460ff166003811115611ac357fe5b141515611acf57600080fd5b66038d7ea4c6800060376000848152602001908152602001600020600601540234111515611afc57600080fd5b6037600083815260200190815260200160002060070160009054906101000a900473ffffffffffffffffffffffffffffffffffffffff1673ffffffffffffffffffffffffffffffffffffffff166108fc66038d7ea4c680006037600086815260200190815260200160002060060154029081150290604051600060405180830381858888f19350505050158015611b97573d6000803e3d6000fd5b50336037600084815260200190815260200160002060070160006101000a81548173ffffffffffffffffffffffffffffffffffffffff021916908373ffffffffffffffffffffffffffffffffffffffff16021790555066038d7ea4c6800034811515611bff57fe5b0460376000848152602001908152602001600020600601819055505050565b611c26612b8b565b601b600380602002604051908101604052809291906000905b82821015611c9857838260090201600980602002604051908101604052809291908260098015611c84576020028201915b815481526020019060010190808311611c70575b505050505081526020019060010190611c3f565b50505050905090565b611ca9612bba565b60098080602002604051908101604052809291908260098015611d17576020028201915b8160009054906101000a900473ffffffffffffffffffffffffffffffffffffffff1673ffffffffffffffffffffffffffffffffffffffff1681526020019060010190808311611ccd575b5050505050905090565b611d29612bba565b6000600980602002604051908101604052809291908260098015611d98576020028201915b8160009054906101000a900473ffffffffffffffffffffffffffffffffffffffff1673ffffffffffffffffffffffffffffffffffffffff1681526020019060010190808311611d4e575b5050505050905090565b6000806037600086815260200190815260200160002061016060405190810160405290816000820160009054906101000a900473ffffffffffffffffffffffffffffffffffffffff1673ffffffffffffffffffffffffffffffffffffffff1673ffffffffffffffffffffffffffffffffffffffff16815260200160018201805480602002602001604051908101604052809291908181526020018280548015611ea057602002820191906000526020600020905b8160009054906101000a900473ffffffffffffffffffffffffffffffffffffffff1673ffffffffffffffffffffffffffffffffffffffff1681526020019060010190808311611e56575b505050505081526020016002820160009054906101000a900473ffffffffffffffffffffffffffffffffffffffff1673ffffffffffffffffffffffffffffffffffffffff1673ffffffffffffffffffffffffffffffffffffffff1681526020016003820160009054906101000a900473ffffffffffffffffffffffffffffffffffffffff1673ffffffffffffffffffffffffffffffffffffffff1673ffffffffffffffffffffffffffffffffffffffff1681526020016004820154815260200160058201548152602001600682015481526020016007820160009054906101000a900473ffffffffffffffffffffffffffffffffffffffff1673ffffffffffffffffffffffffffffffffffffffff1673ffffffffffffffffffffffffffffffffffffffff1681526020016008820154815260200160098201548152602001600e820160009054906101000a900460ff166003811115611ffb57fe5b600381111561200657fe5b81525050806000015173ffffffffffffffffffffffffffffffffffffffff163373ffffffffffffffffffffffffffffffffffffffff1614151561204857600080fd5b6101f4841115151561205957600080fd5b60376000878152602001908152602001600020600a0160008673ffffffffffffffffffffffffffffffffffffffff1673ffffffffffffffffffffffffffffffffffffffff16815260200190815260200160002054925060376000878152602001908152602001600020600b0160008673ffffffffffffffffffffffffffffffffffffffff1673ffffffffffffffffffffffffffffffffffffffff1681526020019081526020016000205491506201518082028301421015151561211b57600080fd5b6037600087815260200190815260200160002060010160376000888152602001908152602001600020600d0160008773ffffffffffffffffffffffffffffffffffffffff1673ffffffffffffffffffffffffffffffffffffffff1681526020019081526020016000205481548110151561219157fe5b9060005260206000200160006101000a81549073ffffffffffffffffffffffffffffffffffffffff021916905583603860003373ffffffffffffffffffffffffffffffffffffffff1673ffffffffffffffffffffffffffffffffffffffff168152602001908152602001600020600082825401925050819055506001603960003373ffffffffffffffffffffffffffffffffffffffff1673ffffffffffffffffffffffffffffffffffffffff16815260200190815260200160002060008282540192505081905550603960003373ffffffffffffffffffffffffffffffffffffffff1673ffffffffffffffffffffffffffffffffffffffff16815260200190815260200160002054603860003373ffffffffffffffffffffffffffffffffffffffff1673ffffffffffffffffffffffffffffffffffffffff168152602001908152602001600020548115156122e257fe5b04603a60003373ffffffffffffffffffffffffffffffffffffffff1673ffffffffffffffffffffffffffffffffffffffff16815260200190815260200160002081905550505050505050565b612336612bde565b601260098060200260405190810160405280929190826009801561236f576020028201915b81548152602001906001019080831161235b575b5050505050905090565b600080841015801561238c575060098411155b151561239757600080fd5b336009856009811015156123a757fe5b0160006101000a81548173ffffffffffffffffffffffffffffffffffffffff021916908373ffffffffffffffffffffffffffffffffffffffff1602179055508390509392505050565b6012816009811015156123ff57fe5b016000915090505481565b6037600083815260200190815260200160002061016060405190810160405290816000820160009054906101000a900473ffffffffffffffffffffffffffffffffffffffff1673ffffffffffffffffffffffffffffffffffffffff1673ffffffffffffffffffffffffffffffffffffffff1681526020016001820180548060200260200160405190810160405280929190818152602001828054801561250557602002820191906000526020600020905b8160009054906101000a900473ffffffffffffffffffffffffffffffffffffffff1673ffffffffffffffffffffffffffffffffffffffff16815260200190600101908083116124bb575b505050505081526020016002820160009054906101000a900473ffffffffffffffffffffffffffffffffffffffff1673ffffffffffffffffffffffffffffffffffffffff1673ffffffffffffffffffffffffffffffffffffffff1681526020016003820160009054906101000a900473ffffffffffffffffffffffffffffffffffffffff1673ffffffffffffffffffffffffffffffffffffffff1673ffffffffffffffffffffffffffffffffffffffff1681526020016004820154815260200160058201548152602001600682015481526020016007820160009054906101000a900473ffffffffffffffffffffffffffffffffffffffff1673ffffffffffffffffffffffffffffffffffffffff1673ffffffffffffffffffffffffffffffffffffffff1681526020016008820154815260200160098201548152602001600e820160009054906101000a900460ff16600381111561266057fe5b600381111561266b57fe5b81525050806000015173ffffffffffffffffffffffffffffffffffffffff163373ffffffffffffffffffffffffffffffffffffffff161415156126ad57600080fd5b600083101580156126bf575060098311155b15156126ca57600080fd5b816012846009811015156126da57fe5b01819055506001601b846003811015156126f057fe5b60090201600060098110151561270257fe5b0181905550505050565b60098160098110151561271b57fe5b016000915054906101000a900473ffffffffffffffffffffffffffffffffffffffff1681565b6000808210158015612754575060098211155b151561275f57600080fd5b3360098360098110151561276f57fe5b0160006101000a81548173ffffffffffffffffffffffffffffffffffffffff021916908373ffffffffffffffffffffffffffffffffffffffff160217905550819050919050565b6037600083815260200190815260200160002061016060405190810160405290816000820160009054906101000a900473ffffffffffffffffffffffffffffffffffffffff1673ffffffffffffffffffffffffffffffffffffffff1673ffffffffffffffffffffffffffffffffffffffff168152602001600182018054806020026020016040519081016040528092919081815260200182805480156128b157602002820191906000526020600020905b8160009054906101000a900473ffffffffffffffffffffffffffffffffffffffff1673ffffffffffffffffffffffffffffffffffffffff1681526020019060010190808311612867575b505050505081526020016002820160009054906101000a900473ffffffffffffffffffffffffffffffffffffffff1673ffffffffffffffffffffffffffffffffffffffff1673ffffffffffffffffffffffffffffffffffffffff1681526020016003820160009054906101000a900473ffffffffffffffffffffffffffffffffffffffff1673ffffffffffffffffffffffffffffffffffffffff1673ffffffffffffffffffffffffffffffffffffffff1681526020016004820154815260200160058201548152602001600682015481526020016007820160009054906101000a900473ffffffffffffffffffffffffffffffffffffffff1673ffffffffffffffffffffffffffffffffffffffff1673ffffffffffffffffffffffffffffffffffffffff1681526020016008820154815260200160098201548152602001600e820160009054906101000a900460ff166003811115612a0c57fe5b6003811115612a1757fe5b81525050806000015173ffffffffffffffffffffffffffffffffffffffff163373ffffffffffffffffffffffffffffffffffffffff16141515612a5957600080fd5b60008310158015612a6b575060098311155b1515612a7657600080fd5b81601284600981101515612a8657fe5b01819055506001601b84600381101515612a9c57fe5b600902016001600981101515612aae57fe5b0181905550505050565b6000603a60008373ffffffffffffffffffffffffffffffffffffffff1673ffffffffffffffffffffffffffffffffffffffff168152602001908152602001600020549050919050565b828054828255906000526020600020908101928215612b7a579160200282015b82811115612b795782518260006101000a81548173ffffffffffffffffffffffffffffffffffffffff021916908373ffffffffffffffffffffffffffffffffffffffff16021790555091602001919060010190612b21565b5b509050612b879190612c02565b5090565b610360604051908101604052806003905b612ba4612c45565b815260200190600190039081612b9c5790505090565b61012060405190810160405280600990602082028038833980820191505090505090565b61012060405190810160405280600990602082028038833980820191505090505090565b612c4291905b80821115612c3e57600081816101000a81549073ffffffffffffffffffffffffffffffffffffffff021916905550600101612c08565b5090565b90565b610120604051908101604052806009906020820280388339808201915050905050905600a165627a7a72305820eb95a97704ca75f8a418d872a064de2c7ab43d019247df966def7ce5e88d7b190029",
  "source": "pragma solidity ^0.4.2;\r\n\r\n//Art class for artwork\r\ncontract DigiArtPlat{\r\n    // function DigiArtPlat() public{\r\n    // }\r\n\r\n    address[9] public userDat;\r\n    address[9] public buyerDat;\r\n    uint[9] public prices;\r\n    uint[9][3] public status1;\r\n\r\n    enum ArtStates { hold, selling, auctioning, renting}\r\n    struct Art{\r\n        address owner;\r\n        address[] users;\r\n        address targetBuyer;\r\n        address targetRenter;\r\n        uint currentPrice;\r\n        uint currentRent;       //rent per day\r\n        uint currentBid;\r\n        address winning;\r\n        uint auctionStart;\r\n        uint auctionDuration; //in hours\r\n        mapping (address=>uint) rentStart;\r\n        mapping (address=>uint) rentDuration; //in days\r\n        mapping (address=>string) destination;\r\n        mapping (address=>uint) userIndex;\r\n        ArtStates state;\r\n    }\r\n    uint artID = 0;\r\n    mapping (uint=>Art) arts;\r\n    mapping (address=>uint) score;\r\n    mapping (address=>uint) ratingCount;\r\n    mapping (address=>uint) rating;\r\n    mapping (uint=>address) toOwner;\r\n\r\n    event Transfer(string txType, uint time, address from, address to, uint price);\r\n    event Creation(uint time, address artist);\r\n\r\n\r\n    modifier onlyOwner(Art a) {\r\n        require(msg.sender == a.owner);\r\n        _;\r\n    }\r\n\r\n    modifier notOwner(Art a) {\r\n        require(msg.sender != a.owner);\r\n        _;\r\n    }\r\n\r\n    function createArt(uint Id, uint _price) public returns(uint){\r\n\r\n        require(Id >= 0 && Id <= 9);\r\n\r\n        prices[Id] = _price;\r\n        userDat[Id] = msg.sender;\r\n\r\n        arts[artID] = Art({\r\n            owner: msg.sender,\r\n            users: new address[](0),\r\n            targetBuyer: address(0),\r\n            targetRenter: address(0),\r\n            currentPrice: 0,\r\n            currentRent: 0,\r\n            //rent per day\r\n            currentBid: 0,\r\n            winning: address(0),\r\n            auctionStart: 0,\r\n            auctionDuration: 0,\r\n            state: ArtStates.hold\r\n            });\r\n        toOwner[artID] = msg.sender;\r\n        artID = artID+1;\r\n        return artID - 1;\r\n    }\r\n\r\n\r\n    function initiateSale(uint ID, uint _price) /*, address _to ) */public onlyOwner(arts[ID]) {\r\n        \r\n        require(ID >= 0 && ID <= 9);\r\n\r\n        prices[ID] = _price;\r\n        status1[ID][0] = 1;\r\n\r\n\r\n\r\n        //artist can either set a target buyer or not(open sale)\r\n        // require(_to != address(this) && _to != arts[ID].owner);\r\n        // require(arts[ID].state == ArtStates.hold);\r\n\r\n        // arts[ID].state = ArtStates.selling;\r\n\r\n        // arts[ID].targetBuyer = _to;\r\n\r\n        // arts[ID].currentPrice = _price;\r\n    }\r\n\r\n    function initialRent(uint ID, uint _rent /*, address _to*/) public onlyOwner(arts[ID]){\r\n                \r\n        require(ID >= 0 && ID <= 9);\r\n\r\n        prices[ID] = _rent;\r\n        status1[ID][1] = 1;\r\n        // require(_to != address(this) && _to != arts[ID].owner);\r\n        // require(arts[ID].state == ArtStates.hold);\r\n\r\n        // arts[ID].state = ArtStates.renting;\r\n\r\n        // arts[ID].targetRenter = _to;\r\n\r\n        // arts[ID].currentRent = _rent;\r\n    }\r\n\r\n    function initiateAuction(uint ID, uint _price, uint duration) public onlyOwner(arts[ID]) {\r\n        require(arts[ID].state == ArtStates.hold);\r\n\r\n        arts[ID].state = ArtStates.auctioning;\r\n\r\n        arts[ID].currentBid = _price;\r\n        arts[ID].winning = arts[ID].owner;\r\n        arts[ID].auctionStart = now;\r\n        arts[ID].auctionDuration = duration;\r\n    }\r\n\r\n    function resetSale(uint ID) private {\r\n        arts[ID].state = ArtStates.hold;\r\n        arts[ID].targetBuyer = address(0);\r\n    }\r\n\r\n    function buy(uint ID) public returns(uint) /*notOwner(arts[ID]) payable */{\r\n\r\n        require(ID >= 0 && ID <= 9);\r\n\r\n        buyerDat[ID] = msg.sender;\r\n\r\n        return ID;\r\n\r\n        // require(arts[ID].state == ArtStates.selling);\r\n        // require(msg.sender != arts[ID].owner);\r\n        // require(msg.sender == arts[ID].targetBuyer || arts[ID].targetBuyer == address(0));\r\n        // require(msg.value == arts[ID].currentPrice * 1 finney);\r\n\r\n        // require(ID >= 0 && ID <= 9);\r\n\r\n        // buyerDat[ID] = msg.sender;\r\n\r\n        // // Change ownership\r\n        // address prevOwner = arts[ID].owner;\r\n        // address newOwner = msg.sender;\r\n        // uint salePrice = arts[ID].currentPrice;\r\n\r\n        // // Transaction cleanup\r\n        // resetSale(ID);\r\n\r\n        // prevOwner.transfer(salePrice* 1 finney);\r\n        // arts[ID].owner = newOwner;\r\n        // toOwner[artID] = newOwner;\r\n        // emit Transfer(\"buy\", now, prevOwner, newOwner, salePrice);\r\n\r\n        // score[msg.sender] += 500;\r\n        // ratingCount[msg.sender] += 1;\r\n        // rating[msg.sender] = score[msg.sender]/ratingCount[msg.sender];\r\n\r\n    }\r\n\r\n    function rent(uint ID, uint start, /*uint duration,*/ string destination)public /*notOwner(arts[ID]) payable*/ returns(uint){\r\n\r\n        \r\n        require(ID >= 0 && ID <= 9);\r\n\r\n        buyerDat[ID] = msg.sender;\r\n\r\n        return ID;\r\n        //to subscribe, need to call this function\r\n        // require(arts[ID].state == ArtStates.renting);\r\n        // require(msg.sender == arts[ID].targetRenter);\r\n        // require(msg.value == arts[ID].currentRent * 1 finney);\r\n\r\n        // require(ID >= 0 && ID <= 9);\r\n\r\n        // buyerDat[ID] = msg.sender;\r\n\r\n        // uint rentPrice = arts[ID].currentRent;\r\n        // arts[ID].users.push(msg.sender);\r\n        // uint index = arts[ID].users.length-1;\r\n        // arts[ID].userIndex[msg.sender] = index;\r\n        // arts[ID].owner.transfer(arts[ID].currentRent* 1 finney);\r\n        // arts[ID].rentStart[msg.sender] = now + start * 1 days;\r\n        // arts[ID].rentDuration[msg.sender] = duration;\r\n        // arts[ID].destination[msg.sender] = destination;\r\n        // emit Transfer(\"rent\", now, arts[ID].owner, msg.sender, rentPrice);\r\n        // return index;\r\n    }\r\n\r\n    function endRent(uint ID, address _renter,uint rate) public onlyOwner(arts[ID]){\r\n        require(rate<=500);\r\n        uint start = arts[ID].rentStart[_renter];\r\n        uint duration = arts[ID].rentDuration[_renter];\r\n        require(now>=(start + duration * 1 days));\r\n        delete arts[ID].users[arts[ID].userIndex[_renter]];\r\n\r\n        score[msg.sender] +=rate;\r\n        ratingCount[msg.sender] +=1;\r\n        rating[msg.sender] = score[msg.sender]/ratingCount[msg.sender];\r\n    }\r\n\r\n    function bid(uint ID) public notOwner(arts[ID]) payable{\r\n\r\n        require(ID >= 0 && ID <= 9);\r\n\r\n        buyerDat[ID] = msg.sender;\r\n\r\n        require(now<=arts[ID].auctionStart+arts[ID].auctionDuration * 1 hours);\r\n        require(arts[ID].state == ArtStates.auctioning);\r\n        require(msg.value>arts[ID].currentBid*1 finney);\r\n        arts[ID].winning.transfer(arts[ID].currentBid* 1 finney);\r\n        //address prevWinning = arts[ID].winning;\r\n        arts[ID].winning = msg.sender;\r\n        arts[ID].currentBid = msg.value/1000000000000000;\r\n\r\n    }\r\n\r\n    function closeAuction(uint ID, uint rate) public onlyOwner(arts[ID]){\r\n        require(arts[ID].state == ArtStates.auctioning);\r\n        require(now>=arts[ID].auctionStart+arts[ID].auctionDuration * 1 hours+15 minutes); //duration is in hours\r\n        if (arts[ID].winning == arts[ID].owner){\r\n            arts[ID].currentBid = _price;\r\n            arts[ID].winning = address(0);\r\n            arts[ID].auctionStart = 0;\r\n            arts[ID].auctionDuration = 0;\r\n            arts[ID].state = ArtStates.hold;\r\n        }else{\r\n            address prevOwner = arts[ID].owner;\r\n            uint _price = arts[ID].currentBid;\r\n            address winner = arts[ID].winning;\r\n            prevOwner.transfer(_price* 1 finney);\r\n            arts[ID].owner = winner;\r\n            toOwner[artID] = winner;\r\n            emit Transfer(\"auction\", now, prevOwner, winner, _price);\r\n            require(rate<=500);\r\n            score[msg.sender] += rate;\r\n            ratingCount[msg.sender] += 1;\r\n            rating[msg.sender] = score[msg.sender]/ratingCount[msg.sender];\r\n        }\r\n\r\n    }\r\n\r\n    function checkRating(address user) public returns(uint){\r\n        return rating[user];\r\n    }\r\n\r\n    //function subscribe(uint ID,) public notOwner(arts[ID]){\r\n\r\n    //}\r\n\r\n    function getUser() public view returns (address[9]) {\r\n        return userDat;\r\n    }\r\n\r\n    function getBuyer() public view returns (address[9]) {\r\n        return buyerDat;\r\n    }\r\n\r\n    function getStatus() public view returns (uint[9][3]) {\r\n        return status1;\r\n    }\r\n\r\n    function getPrice() public view returns (uint[9]) {\r\n        return prices;\r\n    }\r\n\r\n\r\n}\r\n",
  "sourcePath": "C:\\Users\\Jing Jiang\\Digi-Art-Platform\\truffle-source\\contracts\\DigiArtPlat.sol",
  "compiler": {
    "name": "solc",
    "version": "0.4.23+commit.124ca40d.Emscripten.clang"
  },
  "schemaVersion": "2.0.0",
  "updatedAt": "2018-05-07T09:05:32.215Z"
}