{
  "contractName": "DigiArtPlat",
  "abi": [
    {
      "constant": true,
      "inputs": [
        {
          "name": "",
          "type": "uint256"
        }
      ],
      "name": "userDat",
      "outputs": [
        {
          "name": "",
          "type": "address"
        }
      ],
      "payable": false,
      "stateMutability": "view",
      "type": "function"
    },
    {
      "constant": true,
      "inputs": [
        {
          "name": "",
          "type": "uint256"
        },
        {
          "name": "",
          "type": "uint256"
        }
      ],
      "name": "status1",
      "outputs": [
        {
          "name": "",
          "type": "uint256"
        }
      ],
      "payable": false,
      "stateMutability": "view",
      "type": "function"
    },
    {
      "constant": true,
      "inputs": [
        {
          "name": "",
          "type": "uint256"
        }
      ],
      "name": "prices",
      "outputs": [
        {
          "name": "",
          "type": "uint256"
        }
      ],
      "payable": false,
      "stateMutability": "view",
      "type": "function"
    },
    {
      "constant": true,
      "inputs": [
        {
          "name": "",
          "type": "uint256"
        }
      ],
      "name": "buyerDat",
      "outputs": [
        {
          "name": "",
          "type": "address"
        }
      ],
      "payable": false,
      "stateMutability": "view",
      "type": "function"
    },
    {
      "anonymous": false,
      "inputs": [
        {
          "indexed": false,
          "name": "txType",
          "type": "string"
        },
        {
          "indexed": false,
          "name": "time",
          "type": "uint256"
        },
        {
          "indexed": false,
          "name": "from",
          "type": "address"
        },
        {
          "indexed": false,
          "name": "to",
          "type": "address"
        },
        {
          "indexed": false,
          "name": "price",
          "type": "uint256"
        }
      ],
      "name": "Transfer",
      "type": "event"
    },
    {
      "anonymous": false,
      "inputs": [
        {
          "indexed": false,
          "name": "time",
          "type": "uint256"
        },
        {
          "indexed": false,
          "name": "artist",
          "type": "address"
        }
      ],
      "name": "Creation",
      "type": "event"
    },
    {
      "constant": false,
      "inputs": [
        {
          "name": "Id",
          "type": "uint256"
        },
        {
          "name": "_price",
          "type": "uint256"
        }
      ],
      "name": "createArt",
      "outputs": [
        {
          "name": "",
          "type": "uint256"
        }
      ],
      "payable": false,
      "stateMutability": "nonpayable",
      "type": "function"
    },
    {
      "constant": false,
      "inputs": [
        {
          "name": "ID",
          "type": "uint256"
        },
        {
          "name": "_price",
          "type": "uint256"
        }
      ],
      "name": "initiateSale",
      "outputs": [],
      "payable": false,
      "stateMutability": "nonpayable",
      "type": "function"
    },
    {
      "constant": false,
      "inputs": [
        {
          "name": "ID",
          "type": "uint256"
        },
        {
          "name": "_rent",
          "type": "uint256"
        }
      ],
      "name": "initialRent",
      "outputs": [],
      "payable": false,
      "stateMutability": "nonpayable",
      "type": "function"
    },
    {
      "constant": false,
      "inputs": [
        {
          "name": "ID",
          "type": "uint256"
        },
        {
          "name": "_price",
          "type": "uint256"
        },
        {
          "name": "duration",
          "type": "uint256"
        }
      ],
      "name": "initiateAuction",
      "outputs": [],
      "payable": false,
      "stateMutability": "nonpayable",
      "type": "function"
    },
    {
      "constant": false,
      "inputs": [
        {
          "name": "ID",
          "type": "uint256"
        }
      ],
      "name": "buy",
      "outputs": [],
      "payable": true,
      "stateMutability": "payable",
      "type": "function"
    },
    {
      "constant": false,
      "inputs": [
        {
          "name": "ID",
          "type": "uint256"
        },
        {
          "name": "start",
          "type": "uint256"
        },
        {
          "name": "destination",
          "type": "string"
        }
      ],
      "name": "rent",
      "outputs": [
        {
          "name": "",
          "type": "uint256"
        }
      ],
      "payable": false,
      "stateMutability": "nonpayable",
      "type": "function"
    },
    {
      "constant": false,
      "inputs": [
        {
          "name": "ID",
          "type": "uint256"
        },
        {
          "name": "_renter",
          "type": "address"
        },
        {
          "name": "rate",
          "type": "uint256"
        }
      ],
      "name": "endRent",
      "outputs": [],
      "payable": false,
      "stateMutability": "nonpayable",
      "type": "function"
    },
    {
      "constant": false,
      "inputs": [
        {
          "name": "ID",
          "type": "uint256"
        }
      ],
      "name": "bid",
      "outputs": [],
      "payable": true,
      "stateMutability": "payable",
      "type": "function"
    },
    {
      "constant": false,
      "inputs": [
        {
          "name": "ID",
          "type": "uint256"
        },
        {
          "name": "rate",
          "type": "uint256"
        }
      ],
      "name": "closeAuction",
      "outputs": [],
      "payable": false,
      "stateMutability": "nonpayable",
      "type": "function"
    },
    {
      "constant": false,
      "inputs": [
        {
          "name": "user",
          "type": "address"
        }
      ],
      "name": "checkRating",
      "outputs": [
        {
          "name": "",
          "type": "uint256"
        }
      ],
      "payable": false,
      "stateMutability": "nonpayable",
      "type": "function"
    },
    {
      "constant": true,
      "inputs": [],
      "name": "getUser",
      "outputs": [
        {
          "name": "",
          "type": "address[9]"
        }
      ],
      "payable": false,
      "stateMutability": "view",
      "type": "function"
    },
    {
      "constant": true,
      "inputs": [],
      "name": "getBuyer",
      "outputs": [
        {
          "name": "",
          "type": "address[9]"
        }
      ],
      "payable": false,
      "stateMutability": "view",
      "type": "function"
    },
    {
      "constant": true,
      "inputs": [],
      "name": "getStatus",
      "outputs": [
        {
          "name": "",
          "type": "uint256[9][3]"
        }
      ],
      "payable": false,
      "stateMutability": "view",
      "type": "function"
    },
    {
      "constant": true,
      "inputs": [],
      "name": "getPrice",
      "outputs": [
        {
          "name": "",
          "type": "uint256[9]"
        }
      ],
      "payable": false,
      "stateMutability": "view",
      "type": "function"
    }
  ],
  "bytecode": "0x6080604052600060365534801561001557600080fd5b50612c6e806100256000396000f3006080604052600436106100fc576000357c0100000000000000000000000000000000000000000000000000000000900463ffffffff168063072250061461010157806323456ce314610142578063274b13c41461018d5780632bb98528146101fa5780633983a26014610245578063454a2ab31461027c5780634e69d5601461029c578063603daf9a14610312578063832880e7146103655780638c123f44146103b857806398d5fdca1461040f578063b8907a5314610462578063bc31c1c1146104f3578063c42f0a8814610534578063cada6c311461056b578063d96a094a146105d8578063e1b1a420146105f8578063f7943eca1461062f575b600080fd5b34801561010d57600080fd5b50610140600480360381019080803590602001909291908035906020019092919080359060200190929190505050610686565b005b34801561014e57600080fd5b506101776004803603810190808035906020019092919080359060200190929190505050610a8b565b6040518082815260200191505060405180910390f35b34801561019957600080fd5b506101b860048036038101908080359060200190929190505050610e13565b604051808273ffffffffffffffffffffffffffffffffffffffff1673ffffffffffffffffffffffffffffffffffffffff16815260200191505060405180910390f35b34801561020657600080fd5b5061022f6004803603810190808035906020019092919080359060200190929190505050610e48565b6040518082815260200191505060405180910390f35b34801561025157600080fd5b5061027a6004803603810190808035906020019092919080359060200190929190505050610e74565b005b61029a60048036038101908080359060200190929190505050611715565b005b3480156102a857600080fd5b506102b1611bfd565b604051808260036000925b818410156103025782846020020151600960200280838360005b838110156102f15780820151818401526020810190506102d6565b5050505090500192600101926102bc565b9250505091505060405180910390f35b34801561031e57600080fd5b50610327611c80565b6040518082600960200280838360005b83811015610352578082015181840152602081019050610337565b5050505090500191505060405180910390f35b34801561037157600080fd5b5061037a611d00565b6040518082600960200280838360005b838110156103a557808201518184015260208101905061038a565b5050505090500191505060405180910390f35b3480156103c457600080fd5b5061040d60048036038101908080359060200190929190803573ffffffffffffffffffffffffffffffffffffffff16906020019092919080359060200190929190505050611d81565b005b34801561041b57600080fd5b5061042461230d565b6040518082600960200280838360005b8381101561044f578082015181840152602081019050610434565b5050505090500191505060405180910390f35b34801561046e57600080fd5b506104dd6004803603810190808035906020019092919080359060200190929190803590602001908201803590602001908080601f0160208091040260200160405190810160405280939291908181526020018383808284378201915050505050509192919290505050612358565b6040518082815260200191505060405180910390f35b3480156104ff57600080fd5b5061051e600480360381019080803590602001909291905050506123cf565b6040518082815260200191505060405180910390f35b34801561054057600080fd5b5061056960048036038101908080359060200190929190803590602001909291905050506123e9565b005b34801561057757600080fd5b50610596600480360381019080803590602001909291905050506126eb565b604051808273ffffffffffffffffffffffffffffffffffffffff1673ffffffffffffffffffffffffffffffffffffffff16815260200191505060405180910390f35b6105f660048036038101908080359060200190929190505050612720565b005b34801561060457600080fd5b5061062d600480360381019080803590602001909291908035906020019092919050505061278f565b005b34801561063b57600080fd5b50610670600480360381019080803573ffffffffffffffffffffffffffffffffffffffff169060200190929190505050612a91565b6040518082815260200191505060405180910390f35b6037600084815260200190815260200160002061016060405190810160405290816000820160009054906101000a900473ffffffffffffffffffffffffffffffffffffffff1673ffffffffffffffffffffffffffffffffffffffff1673ffffffffffffffffffffffffffffffffffffffff1681526020016001820180548060200260200160405190810160405280929190818152602001828054801561078157602002820191906000526020600020905b8160009054906101000a900473ffffffffffffffffffffffffffffffffffffffff1673ffffffffffffffffffffffffffffffffffffffff1681526020019060010190808311610737575b505050505081526020016002820160009054906101000a900473ffffffffffffffffffffffffffffffffffffffff1673ffffffffffffffffffffffffffffffffffffffff1673ffffffffffffffffffffffffffffffffffffffff1681526020016003820160009054906101000a900473ffffffffffffffffffffffffffffffffffffffff1673ffffffffffffffffffffffffffffffffffffffff1673ffffffffffffffffffffffffffffffffffffffff1681526020016004820154815260200160058201548152602001600682015481526020016007820160009054906101000a900473ffffffffffffffffffffffffffffffffffffffff1673ffffffffffffffffffffffffffffffffffffffff1673ffffffffffffffffffffffffffffffffffffffff1681526020016008820154815260200160098201548152602001600e820160009054906101000a900460ff1660038111156108dc57fe5b60038111156108e757fe5b81525050806000015173ffffffffffffffffffffffffffffffffffffffff163373ffffffffffffffffffffffffffffffffffffffff1614151561092957600080fd5b6000600381111561093657fe5b60376000868152602001908152602001600020600e0160009054906101000a900460ff16600381111561096557fe5b14151561097157600080fd5b600260376000868152602001908152602001600020600e0160006101000a81548160ff021916908360038111156109a457fe5b02179055508260376000868152602001908152602001600020600601819055506037600085815260200190815260200160002060000160009054906101000a900473ffffffffffffffffffffffffffffffffffffffff166037600086815260200190815260200160002060070160006101000a81548173ffffffffffffffffffffffffffffffffffffffff021916908373ffffffffffffffffffffffffffffffffffffffff16021790555042603760008681526020019081526020016000206008018190555081603760008681526020019081526020016000206009018190555050505050565b6000808310158015610a9e575060098311155b1515610aa957600080fd5b81601284600981101515610ab957fe5b018190555033600084600981101515610ace57fe5b0160006101000a81548173ffffffffffffffffffffffffffffffffffffffff021916908373ffffffffffffffffffffffffffffffffffffffff160217905550610160604051908101604052803373ffffffffffffffffffffffffffffffffffffffff1681526020016000604051908082528060200260200182016040528015610b665781602001602082028038833980820191505090505b508152602001600073ffffffffffffffffffffffffffffffffffffffff168152602001600073ffffffffffffffffffffffffffffffffffffffff168152602001600081526020016000815260200160008152602001600073ffffffffffffffffffffffffffffffffffffffff168152602001600081526020016000815260200160006003811115610bf357fe5b81525060376000603654815260200190815260200160002060008201518160000160006101000a81548173ffffffffffffffffffffffffffffffffffffffff021916908373ffffffffffffffffffffffffffffffffffffffff1602179055506020820151816001019080519060200190610c6e929190612ada565b5060408201518160020160006101000a81548173ffffffffffffffffffffffffffffffffffffffff021916908373ffffffffffffffffffffffffffffffffffffffff16021790555060608201518160030160006101000a81548173ffffffffffffffffffffffffffffffffffffffff021916908373ffffffffffffffffffffffffffffffffffffffff1602179055506080820151816004015560a0820151816005015560c0820151816006015560e08201518160070160006101000a81548173ffffffffffffffffffffffffffffffffffffffff021916908373ffffffffffffffffffffffffffffffffffffffff1602179055506101008201518160080155610120820151816009015561014082015181600e0160006101000a81548160ff02191690836003811115610d9d57fe5b021790555090505033603b6000603654815260200190815260200160002060006101000a81548173ffffffffffffffffffffffffffffffffffffffff021916908373ffffffffffffffffffffffffffffffffffffffff160217905550600160365401603681905550600160365403905092915050565b600081600981101515610e2257fe5b016000915054906101000a900473ffffffffffffffffffffffffffffffffffffffff1681565b601b82600381101515610e5757fe5b6009020181600981101515610e6857fe5b01600091509150505481565b60008060006037600086815260200190815260200160002061016060405190810160405290816000820160009054906101000a900473ffffffffffffffffffffffffffffffffffffffff1673ffffffffffffffffffffffffffffffffffffffff1673ffffffffffffffffffffffffffffffffffffffff16815260200160018201805480602002602001604051908101604052809291908181526020018280548015610f7457602002820191906000526020600020905b8160009054906101000a900473ffffffffffffffffffffffffffffffffffffffff1673ffffffffffffffffffffffffffffffffffffffff1681526020019060010190808311610f2a575b505050505081526020016002820160009054906101000a900473ffffffffffffffffffffffffffffffffffffffff1673ffffffffffffffffffffffffffffffffffffffff1673ffffffffffffffffffffffffffffffffffffffff1681526020016003820160009054906101000a900473ffffffffffffffffffffffffffffffffffffffff1673ffffffffffffffffffffffffffffffffffffffff1673ffffffffffffffffffffffffffffffffffffffff1681526020016004820154815260200160058201548152602001600682015481526020016007820160009054906101000a900473ffffffffffffffffffffffffffffffffffffffff1673ffffffffffffffffffffffffffffffffffffffff1673ffffffffffffffffffffffffffffffffffffffff1681526020016008820154815260200160098201548152602001600e820160009054906101000a900460ff1660038111156110cf57fe5b60038111156110da57fe5b81525050806000015173ffffffffffffffffffffffffffffffffffffffff163373ffffffffffffffffffffffffffffffffffffffff1614151561111c57600080fd5b6002600381111561112957fe5b60376000888152602001908152602001600020600e0160009054906101000a900460ff16600381111561115857fe5b14151561116457600080fd5b610384610e106037600089815260200190815260200160002060090154026037600089815260200190815260200160002060080154010142101515156111a957600080fd5b6037600087815260200190815260200160002060000160009054906101000a900473ffffffffffffffffffffffffffffffffffffffff1673ffffffffffffffffffffffffffffffffffffffff166037600088815260200190815260200160002060070160009054906101000a900473ffffffffffffffffffffffffffffffffffffffff1673ffffffffffffffffffffffffffffffffffffffff16141561132f5782603760008881526020019081526020016000206006018190555060006037600088815260200190815260200160002060070160006101000a81548173ffffffffffffffffffffffffffffffffffffffff021916908373ffffffffffffffffffffffffffffffffffffffff1602179055506000603760008881526020019081526020016000206008018190555060006037600088815260200190815260200160002060090181905550600060376000888152602001908152602001600020600e0160006101000a81548160ff0219169083600381111561132557fe5b021790555061170d565b6037600087815260200190815260200160002060000160009054906101000a900473ffffffffffffffffffffffffffffffffffffffff169350603760008781526020019081526020016000206006015492506037600087815260200190815260200160002060070160009054906101000a900473ffffffffffffffffffffffffffffffffffffffff1691508373ffffffffffffffffffffffffffffffffffffffff166108fc66038d7ea4c6800085029081150290604051600060405180830381858888f19350505050158015611409573d6000803e3d6000fd5b50816037600088815260200190815260200160002060000160006101000a81548173ffffffffffffffffffffffffffffffffffffffff021916908373ffffffffffffffffffffffffffffffffffffffff16021790555081603b6000603654815260200190815260200160002060006101000a81548173ffffffffffffffffffffffffffffffffffffffff021916908373ffffffffffffffffffffffffffffffffffffffff1602179055507f31bc52c97b0c9df927d5bb961bc48c4257ac95b554b7cbc12b1a68919fdef5d44285848660405180806020018681526020018573ffffffffffffffffffffffffffffffffffffffff1673ffffffffffffffffffffffffffffffffffffffff1681526020018473ffffffffffffffffffffffffffffffffffffffff1673ffffffffffffffffffffffffffffffffffffffff168152602001838152602001828103825260078152602001807f61756374696f6e000000000000000000000000000000000000000000000000008152506020019550505050505060405180910390a16101f485111515156115a457600080fd5b84603860003373ffffffffffffffffffffffffffffffffffffffff1673ffffffffffffffffffffffffffffffffffffffff168152602001908152602001600020600082825401925050819055506001603960003373ffffffffffffffffffffffffffffffffffffffff1673ffffffffffffffffffffffffffffffffffffffff16815260200190815260200160002060008282540192505081905550603960003373ffffffffffffffffffffffffffffffffffffffff1673ffffffffffffffffffffffffffffffffffffffff16815260200190815260200160002054603860003373ffffffffffffffffffffffffffffffffffffffff1673ffffffffffffffffffffffffffffffffffffffff168152602001908152602001600020548115156116c857fe5b04603a60003373ffffffffffffffffffffffffffffffffffffffff1673ffffffffffffffffffffffffffffffffffffffff168152602001908152602001600020819055505b505050505050565b6037600082815260200190815260200160002061016060405190810160405290816000820160009054906101000a900473ffffffffffffffffffffffffffffffffffffffff1673ffffffffffffffffffffffffffffffffffffffff1673ffffffffffffffffffffffffffffffffffffffff1681526020016001820180548060200260200160405190810160405280929190818152602001828054801561181057602002820191906000526020600020905b8160009054906101000a900473ffffffffffffffffffffffffffffffffffffffff1673ffffffffffffffffffffffffffffffffffffffff16815260200190600101908083116117c6575b505050505081526020016002820160009054906101000a900473ffffffffffffffffffffffffffffffffffffffff1673ffffffffffffffffffffffffffffffffffffffff1673ffffffffffffffffffffffffffffffffffffffff1681526020016003820160009054906101000a900473ffffffffffffffffffffffffffffffffffffffff1673ffffffffffffffffffffffffffffffffffffffff1673ffffffffffffffffffffffffffffffffffffffff1681526020016004820154815260200160058201548152602001600682015481526020016007820160009054906101000a900473ffffffffffffffffffffffffffffffffffffffff1673ffffffffffffffffffffffffffffffffffffffff1673ffffffffffffffffffffffffffffffffffffffff1681526020016008820154815260200160098201548152602001600e820160009054906101000a900460ff16600381111561196b57fe5b600381111561197657fe5b81525050806000015173ffffffffffffffffffffffffffffffffffffffff163373ffffffffffffffffffffffffffffffffffffffff16141515156119b957600080fd5b600082101580156119cb575060098211155b15156119d657600080fd5b336009836009811015156119e657fe5b0160006101000a81548173ffffffffffffffffffffffffffffffffffffffff021916908373ffffffffffffffffffffffffffffffffffffffff160217905550610e106037600084815260200190815260200160002060090154026037600084815260200190815260200160002060080154014211151515611a6657600080fd5b60026003811115611a7357fe5b60376000848152602001908152602001600020600e0160009054906101000a900460ff166003811115611aa257fe5b141515611aae57600080fd5b66038d7ea4c6800060376000848152602001908152602001600020600601540234111515611adb57600080fd5b6037600083815260200190815260200160002060070160009054906101000a900473ffffffffffffffffffffffffffffffffffffffff1673ffffffffffffffffffffffffffffffffffffffff166108fc66038d7ea4c680006037600086815260200190815260200160002060060154029081150290604051600060405180830381858888f19350505050158015611b76573d6000803e3d6000fd5b50336037600084815260200190815260200160002060070160006101000a81548173ffffffffffffffffffffffffffffffffffffffff021916908373ffffffffffffffffffffffffffffffffffffffff16021790555066038d7ea4c6800034811515611bde57fe5b0460376000848152602001908152602001600020600601819055505050565b611c05612b64565b601b600380602002604051908101604052809291906000905b82821015611c7757838260090201600980602002604051908101604052809291908260098015611c63576020028201915b815481526020019060010190808311611c4f575b505050505081526020019060010190611c1e565b50505050905090565b611c88612b93565b60098080602002604051908101604052809291908260098015611cf6576020028201915b8160009054906101000a900473ffffffffffffffffffffffffffffffffffffffff1673ffffffffffffffffffffffffffffffffffffffff1681526020019060010190808311611cac575b5050505050905090565b611d08612b93565b6000600980602002604051908101604052809291908260098015611d77576020028201915b8160009054906101000a900473ffffffffffffffffffffffffffffffffffffffff1673ffffffffffffffffffffffffffffffffffffffff1681526020019060010190808311611d2d575b5050505050905090565b6000806037600086815260200190815260200160002061016060405190810160405290816000820160009054906101000a900473ffffffffffffffffffffffffffffffffffffffff1673ffffffffffffffffffffffffffffffffffffffff1673ffffffffffffffffffffffffffffffffffffffff16815260200160018201805480602002602001604051908101604052809291908181526020018280548015611e7f57602002820191906000526020600020905b8160009054906101000a900473ffffffffffffffffffffffffffffffffffffffff1673ffffffffffffffffffffffffffffffffffffffff1681526020019060010190808311611e35575b505050505081526020016002820160009054906101000a900473ffffffffffffffffffffffffffffffffffffffff1673ffffffffffffffffffffffffffffffffffffffff1673ffffffffffffffffffffffffffffffffffffffff1681526020016003820160009054906101000a900473ffffffffffffffffffffffffffffffffffffffff1673ffffffffffffffffffffffffffffffffffffffff1673ffffffffffffffffffffffffffffffffffffffff1681526020016004820154815260200160058201548152602001600682015481526020016007820160009054906101000a900473ffffffffffffffffffffffffffffffffffffffff1673ffffffffffffffffffffffffffffffffffffffff1673ffffffffffffffffffffffffffffffffffffffff1681526020016008820154815260200160098201548152602001600e820160009054906101000a900460ff166003811115611fda57fe5b6003811115611fe557fe5b81525050806000015173ffffffffffffffffffffffffffffffffffffffff163373ffffffffffffffffffffffffffffffffffffffff1614151561202757600080fd5b6101f4841115151561203857600080fd5b60376000878152602001908152602001600020600a0160008673ffffffffffffffffffffffffffffffffffffffff1673ffffffffffffffffffffffffffffffffffffffff16815260200190815260200160002054925060376000878152602001908152602001600020600b0160008673ffffffffffffffffffffffffffffffffffffffff1673ffffffffffffffffffffffffffffffffffffffff168152602001908152602001600020549150620151808202830142101515156120fa57600080fd5b6037600087815260200190815260200160002060010160376000888152602001908152602001600020600d0160008773ffffffffffffffffffffffffffffffffffffffff1673ffffffffffffffffffffffffffffffffffffffff1681526020019081526020016000205481548110151561217057fe5b9060005260206000200160006101000a81549073ffffffffffffffffffffffffffffffffffffffff021916905583603860003373ffffffffffffffffffffffffffffffffffffffff1673ffffffffffffffffffffffffffffffffffffffff168152602001908152602001600020600082825401925050819055506001603960003373ffffffffffffffffffffffffffffffffffffffff1673ffffffffffffffffffffffffffffffffffffffff16815260200190815260200160002060008282540192505081905550603960003373ffffffffffffffffffffffffffffffffffffffff1673ffffffffffffffffffffffffffffffffffffffff16815260200190815260200160002054603860003373ffffffffffffffffffffffffffffffffffffffff1673ffffffffffffffffffffffffffffffffffffffff168152602001908152602001600020548115156122c157fe5b04603a60003373ffffffffffffffffffffffffffffffffffffffff1673ffffffffffffffffffffffffffffffffffffffff16815260200190815260200160002081905550505050505050565b612315612bb7565b601260098060200260405190810160405280929190826009801561234e576020028201915b81548152602001906001019080831161233a575b5050505050905090565b600080841015801561236b575060098411155b151561237657600080fd5b3360098560098110151561238657fe5b0160006101000a81548173ffffffffffffffffffffffffffffffffffffffff021916908373ffffffffffffffffffffffffffffffffffffffff1602179055508390509392505050565b6012816009811015156123de57fe5b016000915090505481565b6037600083815260200190815260200160002061016060405190810160405290816000820160009054906101000a900473ffffffffffffffffffffffffffffffffffffffff1673ffffffffffffffffffffffffffffffffffffffff1673ffffffffffffffffffffffffffffffffffffffff168152602001600182018054806020026020016040519081016040528092919081815260200182805480156124e457602002820191906000526020600020905b8160009054906101000a900473ffffffffffffffffffffffffffffffffffffffff1673ffffffffffffffffffffffffffffffffffffffff168152602001906001019080831161249a575b505050505081526020016002820160009054906101000a900473ffffffffffffffffffffffffffffffffffffffff1673ffffffffffffffffffffffffffffffffffffffff1673ffffffffffffffffffffffffffffffffffffffff1681526020016003820160009054906101000a900473ffffffffffffffffffffffffffffffffffffffff1673ffffffffffffffffffffffffffffffffffffffff1673ffffffffffffffffffffffffffffffffffffffff1681526020016004820154815260200160058201548152602001600682015481526020016007820160009054906101000a900473ffffffffffffffffffffffffffffffffffffffff1673ffffffffffffffffffffffffffffffffffffffff1673ffffffffffffffffffffffffffffffffffffffff1681526020016008820154815260200160098201548152602001600e820160009054906101000a900460ff16600381111561263f57fe5b600381111561264a57fe5b81525050806000015173ffffffffffffffffffffffffffffffffffffffff163373ffffffffffffffffffffffffffffffffffffffff1614151561268c57600080fd5b6000831015801561269e575060098311155b15156126a957600080fd5b816012846009811015156126b957fe5b01819055506001601b846003811015156126cf57fe5b6009020160006009811015156126e157fe5b0181905550505050565b6009816009811015156126fa57fe5b016000915054906101000a900473ffffffffffffffffffffffffffffffffffffffff1681565b60008110158015612732575060098111155b151561273d57600080fd5b3360098260098110151561274d57fe5b0160006101000a81548173ffffffffffffffffffffffffffffffffffffffff021916908373ffffffffffffffffffffffffffffffffffffffff16021790555050565b6037600083815260200190815260200160002061016060405190810160405290816000820160009054906101000a900473ffffffffffffffffffffffffffffffffffffffff1673ffffffffffffffffffffffffffffffffffffffff1673ffffffffffffffffffffffffffffffffffffffff1681526020016001820180548060200260200160405190810160405280929190818152602001828054801561288a57602002820191906000526020600020905b8160009054906101000a900473ffffffffffffffffffffffffffffffffffffffff1673ffffffffffffffffffffffffffffffffffffffff1681526020019060010190808311612840575b505050505081526020016002820160009054906101000a900473ffffffffffffffffffffffffffffffffffffffff1673ffffffffffffffffffffffffffffffffffffffff1673ffffffffffffffffffffffffffffffffffffffff1681526020016003820160009054906101000a900473ffffffffffffffffffffffffffffffffffffffff1673ffffffffffffffffffffffffffffffffffffffff1673ffffffffffffffffffffffffffffffffffffffff1681526020016004820154815260200160058201548152602001600682015481526020016007820160009054906101000a900473ffffffffffffffffffffffffffffffffffffffff1673ffffffffffffffffffffffffffffffffffffffff1673ffffffffffffffffffffffffffffffffffffffff1681526020016008820154815260200160098201548152602001600e820160009054906101000a900460ff1660038111156129e557fe5b60038111156129f057fe5b81525050806000015173ffffffffffffffffffffffffffffffffffffffff163373ffffffffffffffffffffffffffffffffffffffff16141515612a3257600080fd5b60008310158015612a44575060098311155b1515612a4f57600080fd5b81601284600981101515612a5f57fe5b01819055506001601b84600381101515612a7557fe5b600902016001600981101515612a8757fe5b0181905550505050565b6000603a60008373ffffffffffffffffffffffffffffffffffffffff1673ffffffffffffffffffffffffffffffffffffffff168152602001908152602001600020549050919050565b828054828255906000526020600020908101928215612b53579160200282015b82811115612b525782518260006101000a81548173ffffffffffffffffffffffffffffffffffffffff021916908373ffffffffffffffffffffffffffffffffffffffff16021790555091602001919060010190612afa565b5b509050612b609190612bdb565b5090565b610360604051908101604052806003905b612b7d612c1e565b815260200190600190039081612b755790505090565b61012060405190810160405280600990602082028038833980820191505090505090565b61012060405190810160405280600990602082028038833980820191505090505090565b612c1b91905b80821115612c1757600081816101000a81549073ffffffffffffffffffffffffffffffffffffffff021916905550600101612be1565b5090565b90565b610120604051908101604052806009906020820280388339808201915050905050905600a165627a7a7230582017d95deabff9f8640d269e568bc504d10324ca428c2924783c6eea9d009d62470029",
  "source": "pragma solidity ^0.4.2;\r\n\r\n//Art class for artwork\r\ncontract DigiArtPlat{\r\n    // function DigiArtPlat() public{\r\n    // }\r\n\r\n    address[9] public userDat;\r\n    address[9] public buyerDat;\r\n    uint[9] public prices;\r\n    uint[9][3] public status1;\r\n\r\n    enum ArtStates { hold, selling, auctioning, renting}\r\n    struct Art{\r\n        address owner;\r\n        address[] users;\r\n        address targetBuyer;\r\n        address targetRenter;\r\n        uint currentPrice;\r\n        uint currentRent;       //rent per day\r\n        uint currentBid;\r\n        address winning;\r\n        uint auctionStart;\r\n        uint auctionDuration; //in hours\r\n        mapping (address=>uint) rentStart;\r\n        mapping (address=>uint) rentDuration; //in days\r\n        mapping (address=>string) destination;\r\n        mapping (address=>uint) userIndex;\r\n        ArtStates state;\r\n    }\r\n    uint artID = 0;\r\n    mapping (uint=>Art) arts;\r\n    mapping (address=>uint) score;\r\n    mapping (address=>uint) ratingCount;\r\n    mapping (address=>uint) rating;\r\n    mapping (uint=>address) toOwner;\r\n\r\n    event Transfer(string txType, uint time, address from, address to, uint price);\r\n    event Creation(uint time, address artist);\r\n\r\n\r\n    modifier onlyOwner(Art a) {\r\n        require(msg.sender == a.owner);\r\n        _;\r\n    }\r\n\r\n    modifier notOwner(Art a) {\r\n        require(msg.sender != a.owner);\r\n        _;\r\n    }\r\n\r\n    function createArt(uint Id, uint _price) public returns(uint){\r\n\r\n        require(Id >= 0 && Id <= 9);\r\n\r\n        prices[Id] = _price;\r\n        userDat[Id] = msg.sender;\r\n\r\n        arts[artID] = Art({\r\n            owner: msg.sender,\r\n            users: new address[](0),\r\n            targetBuyer: address(0),\r\n            targetRenter: address(0),\r\n            currentPrice: 0,\r\n            currentRent: 0,\r\n            //rent per day\r\n            currentBid: 0,\r\n            winning: address(0),\r\n            auctionStart: 0,\r\n            auctionDuration: 0,\r\n            state: ArtStates.hold\r\n            });\r\n        toOwner[artID] = msg.sender;\r\n        artID = artID+1;\r\n        return artID - 1;\r\n    }\r\n\r\n\r\n    function initiateSale(uint ID, uint _price) /*, address _to ) */public onlyOwner(arts[ID]) {\r\n        \r\n        require(ID >= 0 && ID <= 9);\r\n\r\n        prices[ID] = _price;\r\n        status1[ID][0] = 1;\r\n\r\n\r\n\r\n        //artist can either set a target buyer or not(open sale)\r\n        // require(_to != address(this) && _to != arts[ID].owner);\r\n        // require(arts[ID].state == ArtStates.hold);\r\n\r\n        // arts[ID].state = ArtStates.selling;\r\n\r\n        // arts[ID].targetBuyer = _to;\r\n\r\n        // arts[ID].currentPrice = _price;\r\n    }\r\n\r\n    function initialRent(uint ID, uint _rent /*, address _to*/) public onlyOwner(arts[ID]){\r\n                \r\n        require(ID >= 0 && ID <= 9);\r\n\r\n        prices[ID] = _rent;\r\n        status1[ID][1] = 1;\r\n        // require(_to != address(this) && _to != arts[ID].owner);\r\n        // require(arts[ID].state == ArtStates.hold);\r\n\r\n        // arts[ID].state = ArtStates.renting;\r\n\r\n        // arts[ID].targetRenter = _to;\r\n\r\n        // arts[ID].currentRent = _rent;\r\n    }\r\n\r\n    function initiateAuction(uint ID, uint _price, uint duration) public onlyOwner(arts[ID]) {\r\n        require(arts[ID].state == ArtStates.hold);\r\n\r\n        arts[ID].state = ArtStates.auctioning;\r\n\r\n        arts[ID].currentBid = _price;\r\n        arts[ID].winning = arts[ID].owner;\r\n        arts[ID].auctionStart = now;\r\n        arts[ID].auctionDuration = duration;\r\n    }\r\n\r\n    function resetSale(uint ID) private {\r\n        arts[ID].state = ArtStates.hold;\r\n        arts[ID].targetBuyer = address(0);\r\n    }\r\n\r\n    function buy(uint ID) public payable/*notOwner(arts[ID]) payable */{\r\n\r\n        require(ID >= 0 && ID <= 9);\r\n\r\n        buyerDat[ID] = msg.sender;\r\n\r\n        // return ID;\r\n\r\n        // require(arts[ID].state == ArtStates.selling);\r\n        // require(msg.sender != arts[ID].owner);\r\n        // require(msg.sender == arts[ID].targetBuyer || arts[ID].targetBuyer == address(0));\r\n        // require(msg.value == arts[ID].currentPrice * 1 finney);\r\n\r\n        // require(ID >= 0 && ID <= 9);\r\n\r\n        // buyerDat[ID] = msg.sender;\r\n\r\n        // // Change ownership\r\n        // address prevOwner = arts[ID].owner;\r\n        // address newOwner = msg.sender;\r\n        // uint salePrice = arts[ID].currentPrice;\r\n\r\n        // // Transaction cleanup\r\n        // resetSale(ID);\r\n\r\n        // prevOwner.transfer(salePrice* 1 finney);\r\n        // arts[ID].owner = newOwner;\r\n        // toOwner[artID] = newOwner;\r\n        // emit Transfer(\"buy\", now, prevOwner, newOwner, salePrice);\r\n\r\n        // score[msg.sender] += 500;\r\n        // ratingCount[msg.sender] += 1;\r\n        // rating[msg.sender] = score[msg.sender]/ratingCount[msg.sender];\r\n\r\n    }\r\n\r\n    function rent(uint ID, uint start, /*uint duration,*/ string destination)public /*notOwner(arts[ID]) payable*/ returns(uint){\r\n\r\n        \r\n        require(ID >= 0 && ID <= 9);\r\n\r\n        buyerDat[ID] = msg.sender;\r\n\r\n        return ID;\r\n        //to subscribe, need to call this function\r\n        // require(arts[ID].state == ArtStates.renting);\r\n        // require(msg.sender == arts[ID].targetRenter);\r\n        // require(msg.value == arts[ID].currentRent * 1 finney);\r\n\r\n        // require(ID >= 0 && ID <= 9);\r\n\r\n        // buyerDat[ID] = msg.sender;\r\n\r\n        // uint rentPrice = arts[ID].currentRent;\r\n        // arts[ID].users.push(msg.sender);\r\n        // uint index = arts[ID].users.length-1;\r\n        // arts[ID].userIndex[msg.sender] = index;\r\n        // arts[ID].owner.transfer(arts[ID].currentRent* 1 finney);\r\n        // arts[ID].rentStart[msg.sender] = now + start * 1 days;\r\n        // arts[ID].rentDuration[msg.sender] = duration;\r\n        // arts[ID].destination[msg.sender] = destination;\r\n        // emit Transfer(\"rent\", now, arts[ID].owner, msg.sender, rentPrice);\r\n        // return index;\r\n    }\r\n\r\n    function endRent(uint ID, address _renter,uint rate) public onlyOwner(arts[ID]){\r\n        require(rate<=500);\r\n        uint start = arts[ID].rentStart[_renter];\r\n        uint duration = arts[ID].rentDuration[_renter];\r\n        require(now>=(start + duration * 1 days));\r\n        delete arts[ID].users[arts[ID].userIndex[_renter]];\r\n\r\n        score[msg.sender] +=rate;\r\n        ratingCount[msg.sender] +=1;\r\n        rating[msg.sender] = score[msg.sender]/ratingCount[msg.sender];\r\n    }\r\n\r\n    function bid(uint ID) public notOwner(arts[ID]) payable{\r\n\r\n        require(ID >= 0 && ID <= 9);\r\n\r\n        buyerDat[ID] = msg.sender;\r\n\r\n        require(now<=arts[ID].auctionStart+arts[ID].auctionDuration * 1 hours);\r\n        require(arts[ID].state == ArtStates.auctioning);\r\n        require(msg.value>arts[ID].currentBid*1 finney);\r\n        arts[ID].winning.transfer(arts[ID].currentBid* 1 finney);\r\n        //address prevWinning = arts[ID].winning;\r\n        arts[ID].winning = msg.sender;\r\n        arts[ID].currentBid = msg.value/1000000000000000;\r\n\r\n    }\r\n\r\n    function closeAuction(uint ID, uint rate) public onlyOwner(arts[ID]){\r\n        require(arts[ID].state == ArtStates.auctioning);\r\n        require(now>=arts[ID].auctionStart+arts[ID].auctionDuration * 1 hours+15 minutes); //duration is in hours\r\n        if (arts[ID].winning == arts[ID].owner){\r\n            arts[ID].currentBid = _price;\r\n            arts[ID].winning = address(0);\r\n            arts[ID].auctionStart = 0;\r\n            arts[ID].auctionDuration = 0;\r\n            arts[ID].state = ArtStates.hold;\r\n        }else{\r\n            address prevOwner = arts[ID].owner;\r\n            uint _price = arts[ID].currentBid;\r\n            address winner = arts[ID].winning;\r\n            prevOwner.transfer(_price* 1 finney);\r\n            arts[ID].owner = winner;\r\n            toOwner[artID] = winner;\r\n            emit Transfer(\"auction\", now, prevOwner, winner, _price);\r\n            require(rate<=500);\r\n            score[msg.sender] += rate;\r\n            ratingCount[msg.sender] += 1;\r\n            rating[msg.sender] = score[msg.sender]/ratingCount[msg.sender];\r\n        }\r\n\r\n    }\r\n\r\n    function checkRating(address user) public returns(uint){\r\n        return rating[user];\r\n    }\r\n\r\n    //function subscribe(uint ID,) public notOwner(arts[ID]){\r\n\r\n    //}\r\n\r\n    function getUser() public view returns (address[9]) {\r\n        return userDat;\r\n    }\r\n\r\n    function getBuyer() public view returns (address[9]) {\r\n        return buyerDat;\r\n    }\r\n\r\n    function getStatus() public view returns (uint[9][3]) {\r\n        return status1;\r\n    }\r\n\r\n    function getPrice() public view returns (uint[9]) {\r\n        return prices;\r\n    }\r\n\r\n\r\n}\r\n",
  "sourcePath": "C:\\Users\\Jing Jiang\\Digi-Art-Platform\\truffle-source\\contracts\\DigiArtPlat.sol",
  "compiler": {
    "name": "solc",
    "version": "0.4.23+commit.124ca40d.Emscripten.clang"
  },
  "schemaVersion": "2.0.0",
  "updatedAt": "2018-05-09T02:56:31.773Z"
}